{
  "_format": "hh-sol-artifact-1",
  "contractName": "MockUSDC",
  "sourceName": "contracts/mocks/MockUSDC.sol",
  "abi": [
    {
      "inputs": [],
      "stateMutability": "nonpayable",
      "type": "constructor"
    },
    {
      "inputs": [
        {
          "internalType": "address",
          "name": "spender",
          "type": "address"
        },
        {
          "internalType": "uint256",
          "name": "allowance",
          "type": "uint256"
        },
        {
          "internalType": "uint256",
          "name": "needed",
          "type": "uint256"
        }
      ],
      "name": "ERC20InsufficientAllowance",
      "type": "error"
    },
    {
      "inputs": [
        {
          "internalType": "address",
          "name": "sender",
          "type": "address"
        },
        {
          "internalType": "uint256",
          "name": "balance",
          "type": "uint256"
        },
        {
          "internalType": "uint256",
          "name": "needed",
          "type": "uint256"
        }
      ],
      "name": "ERC20InsufficientBalance",
      "type": "error"
    },
    {
      "inputs": [
        {
          "internalType": "address",
          "name": "approver",
          "type": "address"
        }
      ],
      "name": "ERC20InvalidApprover",
      "type": "error"
    },
    {
      "inputs": [
        {
          "internalType": "address",
          "name": "receiver",
          "type": "address"
        }
      ],
      "name": "ERC20InvalidReceiver",
      "type": "error"
    },
    {
      "inputs": [
        {
          "internalType": "address",
          "name": "sender",
          "type": "address"
        }
      ],
      "name": "ERC20InvalidSender",
      "type": "error"
    },
    {
      "inputs": [
        {
          "internalType": "address",
          "name": "spender",
          "type": "address"
        }
      ],
      "name": "ERC20InvalidSpender",
      "type": "error"
    },
    {
      "inputs": [
        {
          "internalType": "address",
          "name": "owner",
          "type": "address"
        }
      ],
      "name": "OwnableInvalidOwner",
      "type": "error"
    },
    {
      "inputs": [
        {
          "internalType": "address",
          "name": "account",
          "type": "address"
        }
      ],
      "name": "OwnableUnauthorizedAccount",
      "type": "error"
    },
    {
      "anonymous": false,
      "inputs": [
        {
          "indexed": true,
          "internalType": "address",
          "name": "owner",
          "type": "address"
        },
        {
          "indexed": true,
          "internalType": "address",
          "name": "spender",
          "type": "address"
        },
        {
          "indexed": false,
          "internalType": "uint256",
          "name": "value",
          "type": "uint256"
        }
      ],
      "name": "Approval",
      "type": "event"
    },
    {
      "anonymous": false,
      "inputs": [
        {
          "indexed": true,
          "internalType": "address",
          "name": "previousOwner",
          "type": "address"
        },
        {
          "indexed": true,
          "internalType": "address",
          "name": "newOwner",
          "type": "address"
        }
      ],
      "name": "OwnershipTransferred",
      "type": "event"
    },
    {
      "anonymous": false,
      "inputs": [
        {
          "indexed": true,
          "internalType": "address",
          "name": "from",
          "type": "address"
        },
        {
          "indexed": true,
          "internalType": "address",
          "name": "to",
          "type": "address"
        },
        {
          "indexed": false,
          "internalType": "uint256",
          "name": "value",
          "type": "uint256"
        }
      ],
      "name": "Transfer",
      "type": "event"
    },
    {
      "inputs": [
        {
          "internalType": "address",
          "name": "owner",
          "type": "address"
        },
        {
          "internalType": "address",
          "name": "spender",
          "type": "address"
        }
      ],
      "name": "allowance",
      "outputs": [
        {
          "internalType": "uint256",
          "name": "",
          "type": "uint256"
        }
      ],
      "stateMutability": "view",
      "type": "function"
    },
    {
      "inputs": [
        {
          "internalType": "address",
          "name": "spender",
          "type": "address"
        },
        {
          "internalType": "uint256",
          "name": "value",
          "type": "uint256"
        }
      ],
      "name": "approve",
      "outputs": [
        {
          "internalType": "bool",
          "name": "",
          "type": "bool"
        }
      ],
      "stateMutability": "nonpayable",
      "type": "function"
    },
    {
      "inputs": [
        {
          "internalType": "address",
          "name": "account",
          "type": "address"
        }
      ],
      "name": "balanceOf",
      "outputs": [
        {
          "internalType": "uint256",
          "name": "",
          "type": "uint256"
        }
      ],
      "stateMutability": "view",
      "type": "function"
    },
    {
      "inputs": [
        {
          "internalType": "uint256",
          "name": "amount",
          "type": "uint256"
        }
      ],
      "name": "burn",
      "outputs": [],
      "stateMutability": "nonpayable",
      "type": "function"
    },
    {
      "inputs": [],
      "name": "decimals",
      "outputs": [
        {
          "internalType": "uint8",
          "name": "",
          "type": "uint8"
        }
      ],
      "stateMutability": "pure",
      "type": "function"
    },
    {
      "inputs": [
        {
          "internalType": "uint256",
          "name": "amount",
          "type": "uint256"
        }
      ],
      "name": "faucet",
      "outputs": [],
      "stateMutability": "nonpayable",
      "type": "function"
    },
    {
      "inputs": [
        {
          "internalType": "address",
          "name": "to",
          "type": "address"
        },
        {
          "internalType": "uint256",
          "name": "amount",
          "type": "uint256"
        }
      ],
      "name": "mint",
      "outputs": [],
      "stateMutability": "nonpayable",
      "type": "function"
    },
    {
      "inputs": [],
      "name": "name",
      "outputs": [
        {
          "internalType": "string",
          "name": "",
          "type": "string"
        }
      ],
      "stateMutability": "view",
      "type": "function"
    },
    {
      "inputs": [],
      "name": "owner",
      "outputs": [
        {
          "internalType": "address",
          "name": "",
          "type": "address"
        }
      ],
      "stateMutability": "view",
      "type": "function"
    },
    {
      "inputs": [],
      "name": "renounceOwnership",
      "outputs": [],
      "stateMutability": "nonpayable",
      "type": "function"
    },
    {
      "inputs": [],
      "name": "symbol",
      "outputs": [
        {
          "internalType": "string",
          "name": "",
          "type": "string"
        }
      ],
      "stateMutability": "view",
      "type": "function"
    },
    {
      "inputs": [],
      "name": "totalSupply",
      "outputs": [
        {
          "internalType": "uint256",
          "name": "",
          "type": "uint256"
        }
      ],
      "stateMutability": "view",
      "type": "function"
    },
    {
      "inputs": [
        {
          "internalType": "address",
          "name": "to",
          "type": "address"
        },
        {
          "internalType": "uint256",
          "name": "value",
          "type": "uint256"
        }
      ],
      "name": "transfer",
      "outputs": [
        {
          "internalType": "bool",
          "name": "",
          "type": "bool"
        }
      ],
      "stateMutability": "nonpayable",
      "type": "function"
    },
    {
      "inputs": [
        {
          "internalType": "address",
          "name": "from",
          "type": "address"
        },
        {
          "internalType": "address",
          "name": "to",
          "type": "address"
        },
        {
          "internalType": "uint256",
          "name": "value",
          "type": "uint256"
        }
      ],
      "name": "transferFrom",
      "outputs": [
        {
          "internalType": "bool",
          "name": "",
          "type": "bool"
        }
      ],
      "stateMutability": "nonpayable",
      "type": "function"
    },
    {
      "inputs": [
        {
          "internalType": "address",
          "name": "newOwner",
          "type": "address"
        }
      ],
      "name": "transferOwnership",
      "outputs": [],
      "stateMutability": "nonpayable",
      "type": "function"
    }
  ],
  "bytecode": "0x608060405234801561001057600080fd5b5033604051806040016040528060088152602001672aa9a21021b7b4b760c11b815250604051806040016040528060048152602001635553444360e01b815250816003908161005f9190610325565b50600461006c8282610325565b5050506001600160a01b03811661009e57604051631e4fbdf760e01b8152600060048201526024015b60405180910390fd5b6100a7816100d0565b506100cb336100b86006600a6104e2565b6100c690633b9aca006104f8565b610122565b610522565b600580546001600160a01b038381166001600160a01b0319831681179093556040519116919082907f8be0079c531659141344cd1fd0a4f28419497f9722a3daafe3b4186f6b6457e090600090a35050565b6001600160a01b03821661014c5760405163ec442f0560e01b815260006004820152602401610095565b6101586000838361015c565b5050565b6001600160a01b03831661018757806002600082825461017c919061050f565b909155506101f99050565b6001600160a01b038316600090815260208190526040902054818110156101da5760405163391434e360e21b81526001600160a01b03851660048201526024810182905260448101839052606401610095565b6001600160a01b03841660009081526020819052604090209082900390555b6001600160a01b03821661021557600280548290039055610234565b6001600160a01b03821660009081526020819052604090208054820190555b816001600160a01b0316836001600160a01b03167fddf252ad1be2c89b69c2b068fc378daa952ba7f163c4a11628f55a4df523b3ef8360405161027991815260200190565b60405180910390a3505050565b634e487b7160e01b600052604160045260246000fd5b600181811c908216806102b057607f821691505b6020821081036102d057634e487b7160e01b600052602260045260246000fd5b50919050565b601f82111561032057806000526020600020601f840160051c810160208510156102fd5750805b601f840160051c820191505b8181101561031d5760008155600101610309565b50505b505050565b81516001600160401b0381111561033e5761033e610286565b6103528161034c845461029c565b846102d6565b6020601f821160018114610386576000831561036e5750848201515b600019600385901b1c1916600184901b17845561031d565b600084815260208120601f198516915b828110156103b65787850151825560209485019460019092019101610396565b50848210156103d45786840151600019600387901b60f8161c191681555b50505050600190811b01905550565b634e487b7160e01b600052601160045260246000fd5b6001815b600184111561043457808504811115610418576104186103e3565b600184161561042657908102905b60019390931c9280026103fd565b935093915050565b60008261044b575060016104dc565b81610458575060006104dc565b816001811461046e576002811461047857610494565b60019150506104dc565b60ff841115610489576104896103e3565b50506001821b6104dc565b5060208310610133831016604e8410600b84101617156104b7575081810a6104dc565b6104c460001984846103f9565b80600019048211156104d8576104d86103e3565b0290505b92915050565b60006104f160ff84168361043c565b9392505050565b80820281158282048414176104dc576104dc6103e3565b808201808211156104dc576104dc6103e3565b610afd806105316000396000f3fe608060405234801561001057600080fd5b50600436106100f55760003560e01c8063579158971161009757806395d89b411161006657806395d89b41146101f6578063a9059cbb146101fe578063dd62ed3e14610211578063f2fde38b1461024a57600080fd5b8063579158971461019757806370a08231146101aa578063715018a6146101d35780638da5cb5b146101db57600080fd5b806323b872dd116100d357806323b872dd1461014d578063313ce5671461016057806340c10f191461016f57806342966c681461018457600080fd5b806306fdde03146100fa578063095ea7b31461011857806318160ddd1461013b575b600080fd5b61010261025d565b60405161010f9190610818565b60405180910390f35b61012b610126366004610882565b6102ef565b604051901515815260200161010f565b6002545b60405190815260200161010f565b61012b61015b3660046108ac565b610309565b6040516006815260200161010f565b61018261017d366004610882565b61032d565b005b6101826101923660046108e9565b610343565b6101826101a53660046108e9565b610350565b61013f6101b8366004610902565b6001600160a01b031660009081526020819052604090205490565b6101826103d2565b6005546040516001600160a01b03909116815260200161010f565b6101026103e6565b61012b61020c366004610882565b6103f5565b61013f61021f366004610924565b6001600160a01b03918216600090815260016020908152604080832093909416825291909152205490565b610182610258366004610902565b610403565b60606003805461026c90610957565b80601f016020809104026020016040519081016040528092919081815260200182805461029890610957565b80156102e55780601f106102ba576101008083540402835291602001916102e5565b820191906000526020600020905b8154815290600101906020018083116102c857829003601f168201915b5050505050905090565b6000336102fd81858561043e565b60019150505b92915050565b600033610317858285610450565b6103228585856104cf565b506001949350505050565b61033561052e565b61033f828261055b565b5050565b61034d3382610591565b50565b61035c6006600a610a8e565b61036890612710610a9d565b8111156103c85760405162461bcd60e51b8152602060048201526024808201527f4d6f636b555344433a204d61782031302c3030302055534443207065722066616044820152631d58d95d60e21b60648201526084015b60405180910390fd5b61034d338261055b565b6103da61052e565b6103e460006105c7565b565b60606004805461026c90610957565b6000336102fd8185856104cf565b61040b61052e565b6001600160a01b03811661043557604051631e4fbdf760e01b8152600060048201526024016103bf565b61034d816105c7565b61044b8383836001610619565b505050565b6001600160a01b038381166000908152600160209081526040808320938616835292905220546000198110156104c957818110156104ba57604051637dc7a0d960e11b81526001600160a01b038416600482015260248101829052604481018390526064016103bf565b6104c984848484036000610619565b50505050565b6001600160a01b0383166104f957604051634b637e8f60e11b8152600060048201526024016103bf565b6001600160a01b0382166105235760405163ec442f0560e01b8152600060048201526024016103bf565b61044b8383836106ee565b6005546001600160a01b031633146103e45760405163118cdaa760e01b81523360048201526024016103bf565b6001600160a01b0382166105855760405163ec442f0560e01b8152600060048201526024016103bf565b61033f600083836106ee565b6001600160a01b0382166105bb57604051634b637e8f60e11b8152600060048201526024016103bf565b61033f826000836106ee565b600580546001600160a01b038381166001600160a01b0319831681179093556040519116919082907f8be0079c531659141344cd1fd0a4f28419497f9722a3daafe3b4186f6b6457e090600090a35050565b6001600160a01b0384166106435760405163e602df0560e01b8152600060048201526024016103bf565b6001600160a01b03831661066d57604051634a1406b160e11b8152600060048201526024016103bf565b6001600160a01b03808516600090815260016020908152604080832093871683529290522082905580156104c957826001600160a01b0316846001600160a01b03167f8c5be1e5ebec7d5bd14f71427d1e84f3dd0314c0f7b2291e5b200ac8c7c3b925846040516106e091815260200190565b60405180910390a350505050565b6001600160a01b03831661071957806002600082825461070e9190610ab4565b9091555061078b9050565b6001600160a01b0383166000908152602081905260409020548181101561076c5760405163391434e360e21b81526001600160a01b038516600482015260248101829052604481018390526064016103bf565b6001600160a01b03841660009081526020819052604090209082900390555b6001600160a01b0382166107a7576002805482900390556107c6565b6001600160a01b03821660009081526020819052604090208054820190555b816001600160a01b0316836001600160a01b03167fddf252ad1be2c89b69c2b068fc378daa952ba7f163c4a11628f55a4df523b3ef8360405161080b91815260200190565b60405180910390a3505050565b602081526000825180602084015260005b818110156108465760208186018101516040868401015201610829565b506000604082850101526040601f19601f83011684010191505092915050565b80356001600160a01b038116811461087d57600080fd5b919050565b6000806040838503121561089557600080fd5b61089e83610866565b946020939093013593505050565b6000806000606084860312156108c157600080fd5b6108ca84610866565b92506108d860208501610866565b929592945050506040919091013590565b6000602082840312156108fb57600080fd5b5035919050565b60006020828403121561091457600080fd5b61091d82610866565b9392505050565b6000806040838503121561093757600080fd5b61094083610866565b915061094e60208401610866565b90509250929050565b600181811c9082168061096b57607f821691505b60208210810361098b57634e487b7160e01b600052602260045260246000fd5b50919050565b634e487b7160e01b600052601160045260246000fd5b6001815b60018411156109e2578085048111156109c6576109c6610991565b60018416156109d457908102905b60019390931c9280026109ab565b935093915050565b6000826109f957506001610303565b81610a0657506000610303565b8160018114610a1c5760028114610a2657610a42565b6001915050610303565b60ff841115610a3757610a37610991565b50506001821b610303565b5060208310610133831016604e8410600b8410161715610a65575081810a610303565b610a7260001984846109a7565b8060001904821115610a8657610a86610991565b029392505050565b600061091d60ff8416836109ea565b808202811582820484141761030357610303610991565b808201808211156103035761030361099156fea2646970667358221220a05ae09cfb1dec32e46c2dfe393c097107901bed5c3d4416edc67ced190ac5f064736f6c634300081c0033",
  "linkReferences": {},
  "deployedLinkReferences": {}
}