{
  "_format": "hh-sol-artifact-1",
  "contractName": "MockWBTC",
  "sourceName": "contracts/mocks/MockWBTC.sol",
  "abi": [
    {
      "inputs": [],
      "stateMutability": "nonpayable",
      "type": "constructor"
    },
    {
      "inputs": [
        {
          "internalType": "address",
          "name": "spender",
          "type": "address"
        },
        {
          "internalType": "uint256",
          "name": "allowance",
          "type": "uint256"
        },
        {
          "internalType": "uint256",
          "name": "needed",
          "type": "uint256"
        }
      ],
      "name": "ERC20InsufficientAllowance",
      "type": "error"
    },
    {
      "inputs": [
        {
          "internalType": "address",
          "name": "sender",
          "type": "address"
        },
        {
          "internalType": "uint256",
          "name": "balance",
          "type": "uint256"
        },
        {
          "internalType": "uint256",
          "name": "needed",
          "type": "uint256"
        }
      ],
      "name": "ERC20InsufficientBalance",
      "type": "error"
    },
    {
      "inputs": [
        {
          "internalType": "address",
          "name": "approver",
          "type": "address"
        }
      ],
      "name": "ERC20InvalidApprover",
      "type": "error"
    },
    {
      "inputs": [
        {
          "internalType": "address",
          "name": "receiver",
          "type": "address"
        }
      ],
      "name": "ERC20InvalidReceiver",
      "type": "error"
    },
    {
      "inputs": [
        {
          "internalType": "address",
          "name": "sender",
          "type": "address"
        }
      ],
      "name": "ERC20InvalidSender",
      "type": "error"
    },
    {
      "inputs": [
        {
          "internalType": "address",
          "name": "spender",
          "type": "address"
        }
      ],
      "name": "ERC20InvalidSpender",
      "type": "error"
    },
    {
      "inputs": [
        {
          "internalType": "address",
          "name": "owner",
          "type": "address"
        }
      ],
      "name": "OwnableInvalidOwner",
      "type": "error"
    },
    {
      "inputs": [
        {
          "internalType": "address",
          "name": "account",
          "type": "address"
        }
      ],
      "name": "OwnableUnauthorizedAccount",
      "type": "error"
    },
    {
      "anonymous": false,
      "inputs": [
        {
          "indexed": true,
          "internalType": "address",
          "name": "owner",
          "type": "address"
        },
        {
          "indexed": true,
          "internalType": "address",
          "name": "spender",
          "type": "address"
        },
        {
          "indexed": false,
          "internalType": "uint256",
          "name": "value",
          "type": "uint256"
        }
      ],
      "name": "Approval",
      "type": "event"
    },
    {
      "anonymous": false,
      "inputs": [
        {
          "indexed": true,
          "internalType": "address",
          "name": "previousOwner",
          "type": "address"
        },
        {
          "indexed": true,
          "internalType": "address",
          "name": "newOwner",
          "type": "address"
        }
      ],
      "name": "OwnershipTransferred",
      "type": "event"
    },
    {
      "anonymous": false,
      "inputs": [
        {
          "indexed": true,
          "internalType": "address",
          "name": "from",
          "type": "address"
        },
        {
          "indexed": true,
          "internalType": "address",
          "name": "to",
          "type": "address"
        },
        {
          "indexed": false,
          "internalType": "uint256",
          "name": "value",
          "type": "uint256"
        }
      ],
      "name": "Transfer",
      "type": "event"
    },
    {
      "inputs": [
        {
          "internalType": "address",
          "name": "owner",
          "type": "address"
        },
        {
          "internalType": "address",
          "name": "spender",
          "type": "address"
        }
      ],
      "name": "allowance",
      "outputs": [
        {
          "internalType": "uint256",
          "name": "",
          "type": "uint256"
        }
      ],
      "stateMutability": "view",
      "type": "function"
    },
    {
      "inputs": [
        {
          "internalType": "address",
          "name": "spender",
          "type": "address"
        },
        {
          "internalType": "uint256",
          "name": "value",
          "type": "uint256"
        }
      ],
      "name": "approve",
      "outputs": [
        {
          "internalType": "bool",
          "name": "",
          "type": "bool"
        }
      ],
      "stateMutability": "nonpayable",
      "type": "function"
    },
    {
      "inputs": [
        {
          "internalType": "address",
          "name": "account",
          "type": "address"
        }
      ],
      "name": "balanceOf",
      "outputs": [
        {
          "internalType": "uint256",
          "name": "",
          "type": "uint256"
        }
      ],
      "stateMutability": "view",
      "type": "function"
    },
    {
      "inputs": [
        {
          "internalType": "uint256",
          "name": "amount",
          "type": "uint256"
        }
      ],
      "name": "burn",
      "outputs": [],
      "stateMutability": "nonpayable",
      "type": "function"
    },
    {
      "inputs": [],
      "name": "decimals",
      "outputs": [
        {
          "internalType": "uint8",
          "name": "",
          "type": "uint8"
        }
      ],
      "stateMutability": "pure",
      "type": "function"
    },
    {
      "inputs": [
        {
          "internalType": "uint256",
          "name": "amount",
          "type": "uint256"
        }
      ],
      "name": "faucet",
      "outputs": [],
      "stateMutability": "nonpayable",
      "type": "function"
    },
    {
      "inputs": [
        {
          "internalType": "address",
          "name": "to",
          "type": "address"
        },
        {
          "internalType": "uint256",
          "name": "amount",
          "type": "uint256"
        }
      ],
      "name": "mint",
      "outputs": [],
      "stateMutability": "nonpayable",
      "type": "function"
    },
    {
      "inputs": [],
      "name": "name",
      "outputs": [
        {
          "internalType": "string",
          "name": "",
          "type": "string"
        }
      ],
      "stateMutability": "view",
      "type": "function"
    },
    {
      "inputs": [],
      "name": "owner",
      "outputs": [
        {
          "internalType": "address",
          "name": "",
          "type": "address"
        }
      ],
      "stateMutability": "view",
      "type": "function"
    },
    {
      "inputs": [],
      "name": "renounceOwnership",
      "outputs": [],
      "stateMutability": "nonpayable",
      "type": "function"
    },
    {
      "inputs": [],
      "name": "symbol",
      "outputs": [
        {
          "internalType": "string",
          "name": "",
          "type": "string"
        }
      ],
      "stateMutability": "view",
      "type": "function"
    },
    {
      "inputs": [],
      "name": "totalSupply",
      "outputs": [
        {
          "internalType": "uint256",
          "name": "",
          "type": "uint256"
        }
      ],
      "stateMutability": "view",
      "type": "function"
    },
    {
      "inputs": [
        {
          "internalType": "address",
          "name": "to",
          "type": "address"
        },
        {
          "internalType": "uint256",
          "name": "value",
          "type": "uint256"
        }
      ],
      "name": "transfer",
      "outputs": [
        {
          "internalType": "bool",
          "name": "",
          "type": "bool"
        }
      ],
      "stateMutability": "nonpayable",
      "type": "function"
    },
    {
      "inputs": [
        {
          "internalType": "address",
          "name": "from",
          "type": "address"
        },
        {
          "internalType": "address",
          "name": "to",
          "type": "address"
        },
        {
          "internalType": "uint256",
          "name": "value",
          "type": "uint256"
        }
      ],
      "name": "transferFrom",
      "outputs": [
        {
          "internalType": "bool",
          "name": "",
          "type": "bool"
        }
      ],
      "stateMutability": "nonpayable",
      "type": "function"
    },
    {
      "inputs": [
        {
          "internalType": "address",
          "name": "newOwner",
          "type": "address"
        }
      ],
      "name": "transferOwnership",
      "outputs": [],
      "stateMutability": "nonpayable",
      "type": "function"
    }
  ],
  "bytecode": "0x608060405234801561001057600080fd5b50336040518060400160405280600f81526020016e2bb930b83832b2102134ba31b7b4b760891b815250604051806040016040528060048152602001635742544360e01b8152508160039081610066919061032c565b506004610073828261032c565b5050506001600160a01b0381166100a557604051631e4fbdf760e01b8152600060048201526024015b60405180910390fd5b6100ae816100d7565b506100d2336100bf6008600a6104e9565b6100cd906301406f406104ff565b610129565b610529565b600580546001600160a01b038381166001600160a01b0319831681179093556040519116919082907f8be0079c531659141344cd1fd0a4f28419497f9722a3daafe3b4186f6b6457e090600090a35050565b6001600160a01b0382166101535760405163ec442f0560e01b81526000600482015260240161009c565b61015f60008383610163565b5050565b6001600160a01b03831661018e5780600260008282546101839190610516565b909155506102009050565b6001600160a01b038316600090815260208190526040902054818110156101e15760405163391434e360e21b81526001600160a01b0385166004820152602481018290526044810183905260640161009c565b6001600160a01b03841660009081526020819052604090209082900390555b6001600160a01b03821661021c5760028054829003905561023b565b6001600160a01b03821660009081526020819052604090208054820190555b816001600160a01b0316836001600160a01b03167fddf252ad1be2c89b69c2b068fc378daa952ba7f163c4a11628f55a4df523b3ef8360405161028091815260200190565b60405180910390a3505050565b634e487b7160e01b600052604160045260246000fd5b600181811c908216806102b757607f821691505b6020821081036102d757634e487b7160e01b600052602260045260246000fd5b50919050565b601f82111561032757806000526020600020601f840160051c810160208510156103045750805b601f840160051c820191505b818110156103245760008155600101610310565b50505b505050565b81516001600160401b038111156103455761034561028d565b6103598161035384546102a3565b846102dd565b6020601f82116001811461038d57600083156103755750848201515b600019600385901b1c1916600184901b178455610324565b600084815260208120601f198516915b828110156103bd578785015182556020948501946001909201910161039d565b50848210156103db5786840151600019600387901b60f8161c191681555b50505050600190811b01905550565b634e487b7160e01b600052601160045260246000fd5b6001815b600184111561043b5780850481111561041f5761041f6103ea565b600184161561042d57908102905b60019390931c928002610404565b935093915050565b600082610452575060016104e3565b8161045f575060006104e3565b8160018114610475576002811461047f5761049b565b60019150506104e3565b60ff841115610490576104906103ea565b50506001821b6104e3565b5060208310610133831016604e8410600b84101617156104be575081810a6104e3565b6104cb6000198484610400565b80600019048211156104df576104df6103ea565b0290505b92915050565b60006104f860ff841683610443565b9392505050565b80820281158282048414176104e3576104e36103ea565b808201808211156104e3576104e36103ea565b610af0806105386000396000f3fe608060405234801561001057600080fd5b50600436106100f55760003560e01c8063579158971161009757806395d89b411161006657806395d89b41146101f6578063a9059cbb146101fe578063dd62ed3e14610211578063f2fde38b1461024a57600080fd5b8063579158971461019757806370a08231146101aa578063715018a6146101d35780638da5cb5b146101db57600080fd5b806323b872dd116100d357806323b872dd1461014d578063313ce5671461016057806340c10f191461016f57806342966c681461018457600080fd5b806306fdde03146100fa578063095ea7b31461011857806318160ddd1461013b575b600080fd5b61010261025d565b60405161010f919061080b565b60405180910390f35b61012b610126366004610875565b6102ef565b604051901515815260200161010f565b6002545b60405190815260200161010f565b61012b61015b36600461089f565b610309565b6040516008815260200161010f565b61018261017d366004610875565b61032d565b005b6101826101923660046108dc565b610343565b6101826101a53660046108dc565b610350565b61013f6101b83660046108f5565b6001600160a01b031660009081526020819052604090205490565b6101826103c5565b6005546040516001600160a01b03909116815260200161010f565b6101026103d9565b61012b61020c366004610875565b6103e8565b61013f61021f366004610917565b6001600160a01b03918216600090815260016020908152604080832093909416825291909152205490565b6101826102583660046108f5565b6103f6565b60606003805461026c9061094a565b80601f01602080910402602001604051908101604052809291908181526020018280546102989061094a565b80156102e55780601f106102ba576101008083540402835291602001916102e5565b820191906000526020600020905b8154815290600101906020018083116102c857829003601f168201915b5050505050905090565b6000336102fd818585610431565b60019150505b92915050565b600033610317858285610443565b6103228585856104c2565b506001949350505050565b610335610521565b61033f828261054e565b5050565b61034d3382610584565b50565b61035c6008600a610a81565b610367906001610a90565b8111156103bb5760405162461bcd60e51b815260206004820152601f60248201527f4d6f636b574254433a204d61782031205742544320706572206661756365740060448201526064015b60405180910390fd5b61034d338261054e565b6103cd610521565b6103d760006105ba565b565b60606004805461026c9061094a565b6000336102fd8185856104c2565b6103fe610521565b6001600160a01b03811661042857604051631e4fbdf760e01b8152600060048201526024016103b2565b61034d816105ba565b61043e838383600161060c565b505050565b6001600160a01b038381166000908152600160209081526040808320938616835292905220546000198110156104bc57818110156104ad57604051637dc7a0d960e11b81526001600160a01b038416600482015260248101829052604481018390526064016103b2565b6104bc8484848403600061060c565b50505050565b6001600160a01b0383166104ec57604051634b637e8f60e11b8152600060048201526024016103b2565b6001600160a01b0382166105165760405163ec442f0560e01b8152600060048201526024016103b2565b61043e8383836106e1565b6005546001600160a01b031633146103d75760405163118cdaa760e01b81523360048201526024016103b2565b6001600160a01b0382166105785760405163ec442f0560e01b8152600060048201526024016103b2565b61033f600083836106e1565b6001600160a01b0382166105ae57604051634b637e8f60e11b8152600060048201526024016103b2565b61033f826000836106e1565b600580546001600160a01b038381166001600160a01b0319831681179093556040519116919082907f8be0079c531659141344cd1fd0a4f28419497f9722a3daafe3b4186f6b6457e090600090a35050565b6001600160a01b0384166106365760405163e602df0560e01b8152600060048201526024016103b2565b6001600160a01b03831661066057604051634a1406b160e11b8152600060048201526024016103b2565b6001600160a01b03808516600090815260016020908152604080832093871683529290522082905580156104bc57826001600160a01b0316846001600160a01b03167f8c5be1e5ebec7d5bd14f71427d1e84f3dd0314c0f7b2291e5b200ac8c7c3b925846040516106d391815260200190565b60405180910390a350505050565b6001600160a01b03831661070c5780600260008282546107019190610aa7565b9091555061077e9050565b6001600160a01b0383166000908152602081905260409020548181101561075f5760405163391434e360e21b81526001600160a01b038516600482015260248101829052604481018390526064016103b2565b6001600160a01b03841660009081526020819052604090209082900390555b6001600160a01b03821661079a576002805482900390556107b9565b6001600160a01b03821660009081526020819052604090208054820190555b816001600160a01b0316836001600160a01b03167fddf252ad1be2c89b69c2b068fc378daa952ba7f163c4a11628f55a4df523b3ef836040516107fe91815260200190565b60405180910390a3505050565b602081526000825180602084015260005b81811015610839576020818601810151604086840101520161081c565b506000604082850101526040601f19601f83011684010191505092915050565b80356001600160a01b038116811461087057600080fd5b919050565b6000806040838503121561088857600080fd5b61089183610859565b946020939093013593505050565b6000806000606084860312156108b457600080fd5b6108bd84610859565b92506108cb60208501610859565b929592945050506040919091013590565b6000602082840312156108ee57600080fd5b5035919050565b60006020828403121561090757600080fd5b61091082610859565b9392505050565b6000806040838503121561092a57600080fd5b61093383610859565b915061094160208401610859565b90509250929050565b600181811c9082168061095e57607f821691505b60208210810361097e57634e487b7160e01b600052602260045260246000fd5b50919050565b634e487b7160e01b600052601160045260246000fd5b6001815b60018411156109d5578085048111156109b9576109b9610984565b60018416156109c757908102905b60019390931c92800261099e565b935093915050565b6000826109ec57506001610303565b816109f957506000610303565b8160018114610a0f5760028114610a1957610a35565b6001915050610303565b60ff841115610a2a57610a2a610984565b50506001821b610303565b5060208310610133831016604e8410600b8410161715610a58575081810a610303565b610a65600019848461099a565b8060001904821115610a7957610a79610984565b029392505050565b600061091060ff8416836109dd565b808202811582820484141761030357610303610984565b808201808211156103035761030361098456fea2646970667358221220375736d6a83493e7fb83d1f76736f9e7be9bebff5a8c23107bb9f264230da81864736f6c634300081c0033",
  "linkReferences": {},
  "deployedLinkReferences": {}
}