{
  "_format": "hh-sol-artifact-1",
  "contractName": "MultiTokenVault",
  "sourceName": "contracts/MultiTokenVault.sol",
  "abi": [
    {
      "inputs": [
        {
          "internalType": "address",
          "name": "_usdc",
          "type": "address"
        },
        {
          "internalType": "address",
          "name": "manager",
          "type": "address"
        },
        {
          "internalType": "address",
          "name": "agent",
          "type": "address"
        },
        {
          "internalType": "address",
          "name": "_pyth",
          "type": "address"
        },
        {
          "internalType": "string",
          "name": "_name",
          "type": "string"
        },
        {
          "internalType": "string",
          "name": "_symbol",
          "type": "string"
        }
      ],
      "stateMutability": "nonpayable",
      "type": "constructor"
    },
    {
      "inputs": [],
      "name": "AccessControlBadConfirmation",
      "type": "error"
    },
    {
      "inputs": [
        {
          "internalType": "address",
          "name": "account",
          "type": "address"
        },
        {
          "internalType": "bytes32",
          "name": "neededRole",
          "type": "bytes32"
        }
      ],
      "name": "AccessControlUnauthorizedAccount",
      "type": "error"
    },
    {
      "inputs": [
        {
          "internalType": "address",
          "name": "spender",
          "type": "address"
        },
        {
          "internalType": "uint256",
          "name": "allowance",
          "type": "uint256"
        },
        {
          "internalType": "uint256",
          "name": "needed",
          "type": "uint256"
        }
      ],
      "name": "ERC20InsufficientAllowance",
      "type": "error"
    },
    {
      "inputs": [
        {
          "internalType": "address",
          "name": "sender",
          "type": "address"
        },
        {
          "internalType": "uint256",
          "name": "balance",
          "type": "uint256"
        },
        {
          "internalType": "uint256",
          "name": "needed",
          "type": "uint256"
        }
      ],
      "name": "ERC20InsufficientBalance",
      "type": "error"
    },
    {
      "inputs": [
        {
          "internalType": "address",
          "name": "approver",
          "type": "address"
        }
      ],
      "name": "ERC20InvalidApprover",
      "type": "error"
    },
    {
      "inputs": [
        {
          "internalType": "address",
          "name": "receiver",
          "type": "address"
        }
      ],
      "name": "ERC20InvalidReceiver",
      "type": "error"
    },
    {
      "inputs": [
        {
          "internalType": "address",
          "name": "sender",
          "type": "address"
        }
      ],
      "name": "ERC20InvalidSender",
      "type": "error"
    },
    {
      "inputs": [
        {
          "internalType": "address",
          "name": "spender",
          "type": "address"
        }
      ],
      "name": "ERC20InvalidSpender",
      "type": "error"
    },
    {
      "inputs": [
        {
          "internalType": "address",
          "name": "receiver",
          "type": "address"
        },
        {
          "internalType": "uint256",
          "name": "assets",
          "type": "uint256"
        },
        {
          "internalType": "uint256",
          "name": "max",
          "type": "uint256"
        }
      ],
      "name": "ERC4626ExceededMaxDeposit",
      "type": "error"
    },
    {
      "inputs": [
        {
          "internalType": "address",
          "name": "receiver",
          "type": "address"
        },
        {
          "internalType": "uint256",
          "name": "shares",
          "type": "uint256"
        },
        {
          "internalType": "uint256",
          "name": "max",
          "type": "uint256"
        }
      ],
      "name": "ERC4626ExceededMaxMint",
      "type": "error"
    },
    {
      "inputs": [
        {
          "internalType": "address",
          "name": "owner",
          "type": "address"
        },
        {
          "internalType": "uint256",
          "name": "shares",
          "type": "uint256"
        },
        {
          "internalType": "uint256",
          "name": "max",
          "type": "uint256"
        }
      ],
      "name": "ERC4626ExceededMaxRedeem",
      "type": "error"
    },
    {
      "inputs": [
        {
          "internalType": "address",
          "name": "owner",
          "type": "address"
        },
        {
          "internalType": "uint256",
          "name": "assets",
          "type": "uint256"
        },
        {
          "internalType": "uint256",
          "name": "max",
          "type": "uint256"
        }
      ],
      "name": "ERC4626ExceededMaxWithdraw",
      "type": "error"
    },
    {
      "inputs": [],
      "name": "ExecutionFailed",
      "type": "error"
    },
    {
      "inputs": [],
      "name": "InsufficientBalance",
      "type": "error"
    },
    {
      "inputs": [],
      "name": "InvalidAddress",
      "type": "error"
    },
    {
      "inputs": [],
      "name": "InvalidAmount",
      "type": "error"
    },
    {
      "inputs": [],
      "name": "InvalidStrategy",
      "type": "error"
    },
    {
      "inputs": [
        {
          "internalType": "address",
          "name": "owner",
          "type": "address"
        }
      ],
      "name": "OwnableInvalidOwner",
      "type": "error"
    },
    {
      "inputs": [
        {
          "internalType": "address",
          "name": "account",
          "type": "address"
        }
      ],
      "name": "OwnableUnauthorizedAccount",
      "type": "error"
    },
    {
      "inputs": [],
      "name": "PriceStale",
      "type": "error"
    },
    {
      "inputs": [],
      "name": "ReentrancyGuardReentrantCall",
      "type": "error"
    },
    {
      "inputs": [
        {
          "internalType": "address",
          "name": "token",
          "type": "address"
        }
      ],
      "name": "SafeERC20FailedOperation",
      "type": "error"
    },
    {
      "inputs": [],
      "name": "StrategyAlreadyExists",
      "type": "error"
    },
    {
      "inputs": [],
      "name": "StrategyDoesNotExist",
      "type": "error"
    },
    {
      "inputs": [],
      "name": "TokenNotAccepted",
      "type": "error"
    },
    {
      "anonymous": false,
      "inputs": [
        {
          "indexed": true,
          "internalType": "address",
          "name": "owner",
          "type": "address"
        },
        {
          "indexed": true,
          "internalType": "address",
          "name": "spender",
          "type": "address"
        },
        {
          "indexed": false,
          "internalType": "uint256",
          "name": "value",
          "type": "uint256"
        }
      ],
      "name": "Approval",
      "type": "event"
    },
    {
      "anonymous": false,
      "inputs": [
        {
          "indexed": true,
          "internalType": "address",
          "name": "sender",
          "type": "address"
        },
        {
          "indexed": true,
          "internalType": "address",
          "name": "owner",
          "type": "address"
        },
        {
          "indexed": false,
          "internalType": "uint256",
          "name": "assets",
          "type": "uint256"
        },
        {
          "indexed": false,
          "internalType": "uint256",
          "name": "shares",
          "type": "uint256"
        }
      ],
      "name": "Deposit",
      "type": "event"
    },
    {
      "anonymous": false,
      "inputs": [
        {
          "indexed": true,
          "internalType": "address",
          "name": "user",
          "type": "address"
        },
        {
          "indexed": true,
          "internalType": "address",
          "name": "token",
          "type": "address"
        },
        {
          "indexed": false,
          "internalType": "uint256",
          "name": "tokenAmount",
          "type": "uint256"
        },
        {
          "indexed": false,
          "internalType": "uint256",
          "name": "usdcEquivalent",
          "type": "uint256"
        },
        {
          "indexed": false,
          "internalType": "uint256",
          "name": "shares",
          "type": "uint256"
        }
      ],
      "name": "MultiTokenDeposit",
      "type": "event"
    },
    {
      "anonymous": false,
      "inputs": [
        {
          "indexed": true,
          "internalType": "address",
          "name": "previousOwner",
          "type": "address"
        },
        {
          "indexed": true,
          "internalType": "address",
          "name": "newOwner",
          "type": "address"
        }
      ],
      "name": "OwnershipTransferred",
      "type": "event"
    },
    {
      "anonymous": false,
      "inputs": [
        {
          "indexed": true,
          "internalType": "bytes32",
          "name": "role",
          "type": "bytes32"
        },
        {
          "indexed": true,
          "internalType": "bytes32",
          "name": "previousAdminRole",
          "type": "bytes32"
        },
        {
          "indexed": true,
          "internalType": "bytes32",
          "name": "newAdminRole",
          "type": "bytes32"
        }
      ],
      "name": "RoleAdminChanged",
      "type": "event"
    },
    {
      "anonymous": false,
      "inputs": [
        {
          "indexed": true,
          "internalType": "bytes32",
          "name": "role",
          "type": "bytes32"
        },
        {
          "indexed": true,
          "internalType": "address",
          "name": "account",
          "type": "address"
        },
        {
          "indexed": true,
          "internalType": "address",
          "name": "sender",
          "type": "address"
        }
      ],
      "name": "RoleGranted",
      "type": "event"
    },
    {
      "anonymous": false,
      "inputs": [
        {
          "indexed": true,
          "internalType": "bytes32",
          "name": "role",
          "type": "bytes32"
        },
        {
          "indexed": true,
          "internalType": "address",
          "name": "account",
          "type": "address"
        },
        {
          "indexed": true,
          "internalType": "address",
          "name": "sender",
          "type": "address"
        }
      ],
      "name": "RoleRevoked",
      "type": "event"
    },
    {
      "anonymous": false,
      "inputs": [
        {
          "indexed": true,
          "internalType": "address",
          "name": "strategy",
          "type": "address"
        }
      ],
      "name": "StrategyAdded",
      "type": "event"
    },
    {
      "anonymous": false,
      "inputs": [
        {
          "indexed": true,
          "internalType": "address",
          "name": "strategy",
          "type": "address"
        },
        {
          "indexed": false,
          "internalType": "bytes",
          "name": "data",
          "type": "bytes"
        }
      ],
      "name": "StrategyExecuted",
      "type": "event"
    },
    {
      "anonymous": false,
      "inputs": [
        {
          "indexed": true,
          "internalType": "address",
          "name": "strategy",
          "type": "address"
        }
      ],
      "name": "StrategyRemoved",
      "type": "event"
    },
    {
      "anonymous": false,
      "inputs": [
        {
          "indexed": true,
          "internalType": "address",
          "name": "token",
          "type": "address"
        },
        {
          "indexed": false,
          "internalType": "bytes32",
          "name": "priceId",
          "type": "bytes32"
        },
        {
          "indexed": false,
          "internalType": "uint8",
          "name": "decimals",
          "type": "uint8"
        }
      ],
      "name": "TokenConfigured",
      "type": "event"
    },
    {
      "anonymous": false,
      "inputs": [
        {
          "indexed": true,
          "internalType": "address",
          "name": "token",
          "type": "address"
        }
      ],
      "name": "TokenRemoved",
      "type": "event"
    },
    {
      "anonymous": false,
      "inputs": [
        {
          "indexed": true,
          "internalType": "address",
          "name": "from",
          "type": "address"
        },
        {
          "indexed": true,
          "internalType": "address",
          "name": "to",
          "type": "address"
        },
        {
          "indexed": false,
          "internalType": "uint256",
          "name": "value",
          "type": "uint256"
        }
      ],
      "name": "Transfer",
      "type": "event"
    },
    {
      "anonymous": false,
      "inputs": [
        {
          "indexed": true,
          "internalType": "address",
          "name": "sender",
          "type": "address"
        },
        {
          "indexed": true,
          "internalType": "address",
          "name": "receiver",
          "type": "address"
        },
        {
          "indexed": true,
          "internalType": "address",
          "name": "owner",
          "type": "address"
        },
        {
          "indexed": false,
          "internalType": "uint256",
          "name": "assets",
          "type": "uint256"
        },
        {
          "indexed": false,
          "internalType": "uint256",
          "name": "shares",
          "type": "uint256"
        }
      ],
      "name": "Withdraw",
      "type": "event"
    },
    {
      "inputs": [],
      "name": "AGENT_ROLE",
      "outputs": [
        {
          "internalType": "bytes32",
          "name": "",
          "type": "bytes32"
        }
      ],
      "stateMutability": "view",
      "type": "function"
    },
    {
      "inputs": [],
      "name": "DEFAULT_ADMIN_ROLE",
      "outputs": [
        {
          "internalType": "bytes32",
          "name": "",
          "type": "bytes32"
        }
      ],
      "stateMutability": "view",
      "type": "function"
    },
    {
      "inputs": [],
      "name": "MANAGER_ROLE",
      "outputs": [
        {
          "internalType": "bytes32",
          "name": "",
          "type": "bytes32"
        }
      ],
      "stateMutability": "view",
      "type": "function"
    },
    {
      "inputs": [],
      "name": "MAX_PRICE_AGE",
      "outputs": [
        {
          "internalType": "uint256",
          "name": "",
          "type": "uint256"
        }
      ],
      "stateMutability": "view",
      "type": "function"
    },
    {
      "inputs": [
        {
          "internalType": "address",
          "name": "",
          "type": "address"
        }
      ],
      "name": "acceptedTokens",
      "outputs": [
        {
          "internalType": "bytes32",
          "name": "priceId",
          "type": "bytes32"
        },
        {
          "internalType": "uint8",
          "name": "decimals",
          "type": "uint8"
        },
        {
          "internalType": "bool",
          "name": "isAccepted",
          "type": "bool"
        }
      ],
      "stateMutability": "view",
      "type": "function"
    },
    {
      "inputs": [
        {
          "internalType": "uint256",
          "name": "",
          "type": "uint256"
        }
      ],
      "name": "acceptedTokensList",
      "outputs": [
        {
          "internalType": "address",
          "name": "",
          "type": "address"
        }
      ],
      "stateMutability": "view",
      "type": "function"
    },
    {
      "inputs": [
        {
          "internalType": "address",
          "name": "strategy",
          "type": "address"
        }
      ],
      "name": "addStrategy",
      "outputs": [],
      "stateMutability": "nonpayable",
      "type": "function"
    },
    {
      "inputs": [
        {
          "internalType": "address",
          "name": "owner",
          "type": "address"
        },
        {
          "internalType": "address",
          "name": "spender",
          "type": "address"
        }
      ],
      "name": "allowance",
      "outputs": [
        {
          "internalType": "uint256",
          "name": "",
          "type": "uint256"
        }
      ],
      "stateMutability": "view",
      "type": "function"
    },
    {
      "inputs": [
        {
          "internalType": "address",
          "name": "spender",
          "type": "address"
        },
        {
          "internalType": "uint256",
          "name": "value",
          "type": "uint256"
        }
      ],
      "name": "approve",
      "outputs": [
        {
          "internalType": "bool",
          "name": "",
          "type": "bool"
        }
      ],
      "stateMutability": "nonpayable",
      "type": "function"
    },
    {
      "inputs": [],
      "name": "asset",
      "outputs": [
        {
          "internalType": "address",
          "name": "",
          "type": "address"
        }
      ],
      "stateMutability": "view",
      "type": "function"
    },
    {
      "inputs": [
        {
          "internalType": "address",
          "name": "account",
          "type": "address"
        }
      ],
      "name": "balanceOf",
      "outputs": [
        {
          "internalType": "uint256",
          "name": "",
          "type": "uint256"
        }
      ],
      "stateMutability": "view",
      "type": "function"
    },
    {
      "inputs": [
        {
          "internalType": "address",
          "name": "token",
          "type": "address"
        },
        {
          "internalType": "bytes32",
          "name": "priceId",
          "type": "bytes32"
        },
        {
          "internalType": "uint8",
          "name": "decimals",
          "type": "uint8"
        }
      ],
      "name": "configureToken",
      "outputs": [],
      "stateMutability": "nonpayable",
      "type": "function"
    },
    {
      "inputs": [
        {
          "internalType": "uint256",
          "name": "shares",
          "type": "uint256"
        }
      ],
      "name": "convertToAssets",
      "outputs": [
        {
          "internalType": "uint256",
          "name": "",
          "type": "uint256"
        }
      ],
      "stateMutability": "view",
      "type": "function"
    },
    {
      "inputs": [
        {
          "internalType": "uint256",
          "name": "assets",
          "type": "uint256"
        }
      ],
      "name": "convertToShares",
      "outputs": [
        {
          "internalType": "uint256",
          "name": "",
          "type": "uint256"
        }
      ],
      "stateMutability": "view",
      "type": "function"
    },
    {
      "inputs": [],
      "name": "decimals",
      "outputs": [
        {
          "internalType": "uint8",
          "name": "",
          "type": "uint8"
        }
      ],
      "stateMutability": "view",
      "type": "function"
    },
    {
      "inputs": [
        {
          "internalType": "uint256",
          "name": "assets",
          "type": "uint256"
        },
        {
          "internalType": "address",
          "name": "receiver",
          "type": "address"
        }
      ],
      "name": "deposit",
      "outputs": [
        {
          "internalType": "uint256",
          "name": "",
          "type": "uint256"
        }
      ],
      "stateMutability": "nonpayable",
      "type": "function"
    },
    {
      "inputs": [
        {
          "internalType": "address",
          "name": "strategy",
          "type": "address"
        },
        {
          "internalType": "uint256",
          "name": "amount",
          "type": "uint256"
        },
        {
          "internalType": "bytes",
          "name": "data",
          "type": "bytes"
        }
      ],
      "name": "depositToStrategy",
      "outputs": [],
      "stateMutability": "nonpayable",
      "type": "function"
    },
    {
      "inputs": [
        {
          "internalType": "address",
          "name": "token",
          "type": "address"
        },
        {
          "internalType": "uint256",
          "name": "tokenAmount",
          "type": "uint256"
        },
        {
          "internalType": "address",
          "name": "receiver",
          "type": "address"
        }
      ],
      "name": "depositToken",
      "outputs": [
        {
          "internalType": "uint256",
          "name": "shares",
          "type": "uint256"
        }
      ],
      "stateMutability": "nonpayable",
      "type": "function"
    },
    {
      "inputs": [
        {
          "internalType": "address",
          "name": "strategy",
          "type": "address"
        },
        {
          "internalType": "bytes",
          "name": "data",
          "type": "bytes"
        }
      ],
      "name": "emergencyExitStrategy",
      "outputs": [],
      "stateMutability": "nonpayable",
      "type": "function"
    },
    {
      "inputs": [
        {
          "internalType": "address",
          "name": "strategy",
          "type": "address"
        },
        {
          "internalType": "bytes",
          "name": "data",
          "type": "bytes"
        }
      ],
      "name": "executeStrategy",
      "outputs": [],
      "stateMutability": "nonpayable",
      "type": "function"
    },
    {
      "inputs": [],
      "name": "getAcceptedTokens",
      "outputs": [
        {
          "internalType": "address[]",
          "name": "",
          "type": "address[]"
        }
      ],
      "stateMutability": "view",
      "type": "function"
    },
    {
      "inputs": [
        {
          "internalType": "bytes32",
          "name": "role",
          "type": "bytes32"
        }
      ],
      "name": "getRoleAdmin",
      "outputs": [
        {
          "internalType": "bytes32",
          "name": "",
          "type": "bytes32"
        }
      ],
      "stateMutability": "view",
      "type": "function"
    },
    {
      "inputs": [
        {
          "internalType": "bytes32",
          "name": "role",
          "type": "bytes32"
        },
        {
          "internalType": "address",
          "name": "account",
          "type": "address"
        }
      ],
      "name": "grantRole",
      "outputs": [],
      "stateMutability": "nonpayable",
      "type": "function"
    },
    {
      "inputs": [
        {
          "internalType": "address",
          "name": "strategy",
          "type": "address"
        },
        {
          "internalType": "bytes",
          "name": "data",
          "type": "bytes"
        }
      ],
      "name": "harvestStrategy",
      "outputs": [],
      "stateMutability": "nonpayable",
      "type": "function"
    },
    {
      "inputs": [
        {
          "internalType": "address",
          "name": "account",
          "type": "address"
        }
      ],
      "name": "hasAgentRole",
      "outputs": [
        {
          "internalType": "bool",
          "name": "",
          "type": "bool"
        }
      ],
      "stateMutability": "view",
      "type": "function"
    },
    {
      "inputs": [
        {
          "internalType": "address",
          "name": "account",
          "type": "address"
        }
      ],
      "name": "hasManagerRole",
      "outputs": [
        {
          "internalType": "bool",
          "name": "",
          "type": "bool"
        }
      ],
      "stateMutability": "view",
      "type": "function"
    },
    {
      "inputs": [
        {
          "internalType": "bytes32",
          "name": "role",
          "type": "bytes32"
        },
        {
          "internalType": "address",
          "name": "account",
          "type": "address"
        }
      ],
      "name": "hasRole",
      "outputs": [
        {
          "internalType": "bool",
          "name": "",
          "type": "bool"
        }
      ],
      "stateMutability": "view",
      "type": "function"
    },
    {
      "inputs": [
        {
          "internalType": "address",
          "name": "",
          "type": "address"
        }
      ],
      "name": "isStrategy",
      "outputs": [
        {
          "internalType": "bool",
          "name": "",
          "type": "bool"
        }
      ],
      "stateMutability": "view",
      "type": "function"
    },
    {
      "inputs": [
        {
          "internalType": "address",
          "name": "",
          "type": "address"
        }
      ],
      "name": "maxDeposit",
      "outputs": [
        {
          "internalType": "uint256",
          "name": "",
          "type": "uint256"
        }
      ],
      "stateMutability": "view",
      "type": "function"
    },
    {
      "inputs": [
        {
          "internalType": "address",
          "name": "",
          "type": "address"
        }
      ],
      "name": "maxMint",
      "outputs": [
        {
          "internalType": "uint256",
          "name": "",
          "type": "uint256"
        }
      ],
      "stateMutability": "view",
      "type": "function"
    },
    {
      "inputs": [
        {
          "internalType": "address",
          "name": "owner",
          "type": "address"
        }
      ],
      "name": "maxRedeem",
      "outputs": [
        {
          "internalType": "uint256",
          "name": "",
          "type": "uint256"
        }
      ],
      "stateMutability": "view",
      "type": "function"
    },
    {
      "inputs": [
        {
          "internalType": "address",
          "name": "owner",
          "type": "address"
        }
      ],
      "name": "maxWithdraw",
      "outputs": [
        {
          "internalType": "uint256",
          "name": "",
          "type": "uint256"
        }
      ],
      "stateMutability": "view",
      "type": "function"
    },
    {
      "inputs": [
        {
          "internalType": "uint256",
          "name": "shares",
          "type": "uint256"
        },
        {
          "internalType": "address",
          "name": "receiver",
          "type": "address"
        }
      ],
      "name": "mint",
      "outputs": [
        {
          "internalType": "uint256",
          "name": "",
          "type": "uint256"
        }
      ],
      "stateMutability": "nonpayable",
      "type": "function"
    },
    {
      "inputs": [],
      "name": "name",
      "outputs": [
        {
          "internalType": "string",
          "name": "",
          "type": "string"
        }
      ],
      "stateMutability": "view",
      "type": "function"
    },
    {
      "inputs": [],
      "name": "owner",
      "outputs": [
        {
          "internalType": "address",
          "name": "",
          "type": "address"
        }
      ],
      "stateMutability": "view",
      "type": "function"
    },
    {
      "inputs": [
        {
          "internalType": "uint256",
          "name": "assets",
          "type": "uint256"
        }
      ],
      "name": "previewDeposit",
      "outputs": [
        {
          "internalType": "uint256",
          "name": "",
          "type": "uint256"
        }
      ],
      "stateMutability": "view",
      "type": "function"
    },
    {
      "inputs": [
        {
          "internalType": "uint256",
          "name": "shares",
          "type": "uint256"
        }
      ],
      "name": "previewMint",
      "outputs": [
        {
          "internalType": "uint256",
          "name": "",
          "type": "uint256"
        }
      ],
      "stateMutability": "view",
      "type": "function"
    },
    {
      "inputs": [
        {
          "internalType": "uint256",
          "name": "shares",
          "type": "uint256"
        }
      ],
      "name": "previewRedeem",
      "outputs": [
        {
          "internalType": "uint256",
          "name": "",
          "type": "uint256"
        }
      ],
      "stateMutability": "view",
      "type": "function"
    },
    {
      "inputs": [
        {
          "internalType": "address",
          "name": "token",
          "type": "address"
        },
        {
          "internalType": "uint256",
          "name": "tokenAmount",
          "type": "uint256"
        }
      ],
      "name": "previewTokenDeposit",
      "outputs": [
        {
          "internalType": "uint256",
          "name": "usdcEquivalent",
          "type": "uint256"
        }
      ],
      "stateMutability": "view",
      "type": "function"
    },
    {
      "inputs": [
        {
          "internalType": "uint256",
          "name": "assets",
          "type": "uint256"
        }
      ],
      "name": "previewWithdraw",
      "outputs": [
        {
          "internalType": "uint256",
          "name": "",
          "type": "uint256"
        }
      ],
      "stateMutability": "view",
      "type": "function"
    },
    {
      "inputs": [],
      "name": "pyth",
      "outputs": [
        {
          "internalType": "contract IPyth",
          "name": "",
          "type": "address"
        }
      ],
      "stateMutability": "view",
      "type": "function"
    },
    {
      "inputs": [
        {
          "internalType": "uint256",
          "name": "shares",
          "type": "uint256"
        },
        {
          "internalType": "address",
          "name": "receiver",
          "type": "address"
        },
        {
          "internalType": "address",
          "name": "owner",
          "type": "address"
        }
      ],
      "name": "redeem",
      "outputs": [
        {
          "internalType": "uint256",
          "name": "",
          "type": "uint256"
        }
      ],
      "stateMutability": "nonpayable",
      "type": "function"
    },
    {
      "inputs": [
        {
          "internalType": "address",
          "name": "strategy",
          "type": "address"
        }
      ],
      "name": "removeStrategy",
      "outputs": [],
      "stateMutability": "nonpayable",
      "type": "function"
    },
    {
      "inputs": [
        {
          "internalType": "address",
          "name": "token",
          "type": "address"
        }
      ],
      "name": "removeToken",
      "outputs": [],
      "stateMutability": "nonpayable",
      "type": "function"
    },
    {
      "inputs": [],
      "name": "renounceOwnership",
      "outputs": [],
      "stateMutability": "nonpayable",
      "type": "function"
    },
    {
      "inputs": [
        {
          "internalType": "bytes32",
          "name": "role",
          "type": "bytes32"
        },
        {
          "internalType": "address",
          "name": "callerConfirmation",
          "type": "address"
        }
      ],
      "name": "renounceRole",
      "outputs": [],
      "stateMutability": "nonpayable",
      "type": "function"
    },
    {
      "inputs": [
        {
          "internalType": "bytes32",
          "name": "role",
          "type": "bytes32"
        },
        {
          "internalType": "address",
          "name": "account",
          "type": "address"
        }
      ],
      "name": "revokeRole",
      "outputs": [],
      "stateMutability": "nonpayable",
      "type": "function"
    },
    {
      "inputs": [
        {
          "internalType": "uint256",
          "name": "",
          "type": "uint256"
        }
      ],
      "name": "strategies",
      "outputs": [
        {
          "internalType": "address",
          "name": "",
          "type": "address"
        }
      ],
      "stateMutability": "view",
      "type": "function"
    },
    {
      "inputs": [
        {
          "internalType": "bytes4",
          "name": "interfaceId",
          "type": "bytes4"
        }
      ],
      "name": "supportsInterface",
      "outputs": [
        {
          "internalType": "bool",
          "name": "",
          "type": "bool"
        }
      ],
      "stateMutability": "view",
      "type": "function"
    },
    {
      "inputs": [],
      "name": "symbol",
      "outputs": [
        {
          "internalType": "string",
          "name": "",
          "type": "string"
        }
      ],
      "stateMutability": "view",
      "type": "function"
    },
    {
      "inputs": [],
      "name": "totalAssets",
      "outputs": [
        {
          "internalType": "uint256",
          "name": "",
          "type": "uint256"
        }
      ],
      "stateMutability": "view",
      "type": "function"
    },
    {
      "inputs": [],
      "name": "totalSupply",
      "outputs": [
        {
          "internalType": "uint256",
          "name": "",
          "type": "uint256"
        }
      ],
      "stateMutability": "view",
      "type": "function"
    },
    {
      "inputs": [
        {
          "internalType": "address",
          "name": "to",
          "type": "address"
        },
        {
          "internalType": "uint256",
          "name": "value",
          "type": "uint256"
        }
      ],
      "name": "transfer",
      "outputs": [
        {
          "internalType": "bool",
          "name": "",
          "type": "bool"
        }
      ],
      "stateMutability": "nonpayable",
      "type": "function"
    },
    {
      "inputs": [
        {
          "internalType": "address",
          "name": "from",
          "type": "address"
        },
        {
          "internalType": "address",
          "name": "to",
          "type": "address"
        },
        {
          "internalType": "uint256",
          "name": "value",
          "type": "uint256"
        }
      ],
      "name": "transferFrom",
      "outputs": [
        {
          "internalType": "bool",
          "name": "",
          "type": "bool"
        }
      ],
      "stateMutability": "nonpayable",
      "type": "function"
    },
    {
      "inputs": [
        {
          "internalType": "address",
          "name": "newOwner",
          "type": "address"
        }
      ],
      "name": "transferOwnership",
      "outputs": [],
      "stateMutability": "nonpayable",
      "type": "function"
    },
    {
      "inputs": [
        {
          "internalType": "uint256",
          "name": "assets",
          "type": "uint256"
        },
        {
          "internalType": "address",
          "name": "receiver",
          "type": "address"
        },
        {
          "internalType": "address",
          "name": "owner",
          "type": "address"
        }
      ],
      "name": "withdraw",
      "outputs": [
        {
          "internalType": "uint256",
          "name": "",
          "type": "uint256"
        }
      ],
      "stateMutability": "nonpayable",
      "type": "function"
    },
    {
      "stateMutability": "payable",
      "type": "receive"
    }
  ],
  "bytecode": "0x60e060405234801561001057600080fd5b5060405161392038038061392083398101604081905261002f9161046e565b858282338061005957604051631e4fbdf760e01b8152600060048201526024015b60405180910390fd5b610062816101b3565b50600461006f83826105a2565b50600561007c82826105a2565b5050506000806100918361020360201b60201c565b91509150816100a15760126100a3565b805b60ff1660a05250506001600160a01b0390811660805260016007558616158015906100d657506001600160a01b03851615155b80156100ea57506001600160a01b03841615155b80156100fe57506001600160a01b03831615155b6101395760405162461bcd60e51b815260206004820152600c60248201526b5a65726f206164647265737360a01b6044820152606401610050565b6001600160a01b03831660c0526101516000336102df565b5061017c7f241ecf16d79d0f8dbfb92cbc07fe17840425976cf0667f022fe9877caa831b08866102df565b506101a77fcab5a0bfe0b79d2c4b1c2e02599fa044d115b7511f9659307cb4276950967709856102df565b50505050505050610695565b600080546001600160a01b038381166001600160a01b0319831681178455604051919092169283917f8be0079c531659141344cd1fd0a4f28419497f9722a3daafe3b4186f6b6457e09190a35050565b60408051600481526024810182526020810180516001600160e01b031663313ce56760e01b17905290516000918291829182916001600160a01b0387169161024a91610660565b600060405180830381855afa9150503d8060008114610285576040519150601f19603f3d011682016040523d82523d6000602084013e61028a565b606091505b509150915081801561029e57506020815110155b156102d2576000818060200190518101906102b9919061067c565b905060ff81116102d0576001969095509350505050565b505b5060009485945092505050565b60008281526006602090815260408083206001600160a01b038516845290915281205460ff166103855760008381526006602090815260408083206001600160a01b03861684529091529020805460ff1916600117905561033d3390565b6001600160a01b0316826001600160a01b0316847f2f8788117e7eff1d82e926ec794901d17c78024a50270940304540a733656f0d60405160405180910390a4506001610389565b5060005b92915050565b80516001600160a01b03811681146103a657600080fd5b919050565b634e487b7160e01b600052604160045260246000fd5b60005b838110156103dc5781810151838201526020016103c4565b50506000910152565b600082601f8301126103f657600080fd5b81516001600160401b0381111561040f5761040f6103ab565b604051601f8201601f19908116603f011681016001600160401b038111828210171561043d5761043d6103ab565b60405281815283820160200185101561045557600080fd5b6104668260208301602087016103c1565b949350505050565b60008060008060008060c0878903121561048757600080fd5b6104908761038f565b955061049e6020880161038f565b94506104ac6040880161038f565b93506104ba6060880161038f565b60808801519093506001600160401b038111156104d657600080fd5b6104e289828a016103e5565b60a089015190935090506001600160401b0381111561050057600080fd5b61050c89828a016103e5565b9150509295509295509295565b600181811c9082168061052d57607f821691505b60208210810361054d57634e487b7160e01b600052602260045260246000fd5b50919050565b601f82111561059d57806000526020600020601f840160051c8101602085101561057a5750805b601f840160051c820191505b8181101561059a5760008155600101610586565b50505b505050565b81516001600160401b038111156105bb576105bb6103ab565b6105cf816105c98454610519565b84610553565b6020601f82116001811461060357600083156105eb5750848201515b600019600385901b1c1916600184901b17845561059a565b600084815260208120601f198516915b828110156106335787850151825560209485019460019092019101610613565b50848210156106515786840151600019600387901b60f8161c191681555b50505050600190811b01905550565b600082516106728184602087016103c1565b9190910192915050565b60006020828403121561068e57600080fd5b5051919050565b60805160a05160c05161321d61070360003960008181610b01015281816117400152611ca50152600061104c01526000818161062501528181610b2701528181611657015281816119b701528181611a6501528181611bdb0152818161221601526124d0015261321d6000f3fe60806040526004361061036f5760003560e01c806382dc4a05116101c6578063c63d75b6116100f7578063d905777e11610095578063ef8b30f71161006f578063ef8b30f714610967578063f2fde38b14610aaf578063f706c82414610acf578063f98d06f014610aef57600080fd5b8063d905777e14610a27578063dd62ed3e14610a47578063ec87621c14610a8d57600080fd5b8063d27c0a78116100d1578063d27c0a78146109a7578063d2b3d6ce146109c7578063d547741f146109e7578063d574ea3d14610a0757600080fd5b8063c63d75b61461065d578063c6e6f59214610967578063ce96cb771461098757600080fd5b8063a217fddf11610164578063b3d7f6b91161013e578063b3d7f6b9146108e7578063b460af9414610907578063ba08765214610927578063bd07fdac1461094757600080fd5b8063a217fddf14610892578063a46adce9146108a7578063a9059cbb146108c757600080fd5b806394bf804d116101a057806394bf804d1461082757806395d89b41146108475780639d5755821461085c5780639d7f7e861461087c57600080fd5b806382dc4a051461078a5780638da5cb5b146107e957806391d148541461080757600080fd5b80632f757006116102a05780635c84a3731161023e5780636c052700116102185780636c052700146106ff5780636e553f651461071f57806370a082311461073f578063715018a61461077557600080fd5b80635c84a3731461069f5780635fa7b584146106bf57806368d383ff146106df57600080fd5b806338d52e0f1161027a57806338d52e0f14610616578063402d267d1461065d5780634cdad506146104345780635026c8261461067f57600080fd5b80632f757006146105ad578063313ce567146105cf57806336568abe146105f657600080fd5b806318160ddd1161030d57806323b872dd116102e757806323b872dd1461050d578063248a9ca31461052d5780632e8ebaae1461055d5780632f2ff15d1461058d57600080fd5b806318160ddd146104b6578063223e5479146104cb57806322459e18146104eb57600080fd5b806307a2d13a1161034957806307a2d13a14610434578063095ea7b3146104545780630a28a47714610474578063175188e81461049457600080fd5b806301e1d114146103ba57806301ffc9a7146103e257806306fdde031461041257600080fd5b366103b55760405162461bcd60e51b8152602060048201526011602482015270455243323020746f6b656e73206f6e6c7960781b60448201526064015b60405180910390fd5b600080fd5b3480156103c657600080fd5b506103cf610b23565b6040519081526020015b60405180910390f35b3480156103ee57600080fd5b506104026103fd3660046129a2565b610bb5565b60405190151581526020016103d9565b34801561041e57600080fd5b50610427610bec565b6040516103d991906129cc565b34801561044057600080fd5b506103cf61044f366004612a1a565b610c7e565b34801561046057600080fd5b5061040261046f366004612a4a565b610c8b565b34801561048057600080fd5b506103cf61048f366004612a1a565b610ca3565b3480156104a057600080fd5b506104b46104af366004612a74565b610cb0565b005b3480156104c257600080fd5b506003546103cf565b3480156104d757600080fd5b506104b46104e6366004612a74565b610e71565b3480156104f757600080fd5b506103cf6000805160206131c883398151915281565b34801561051957600080fd5b50610402610528366004612a8f565b610f92565b34801561053957600080fd5b506103cf610548366004612a1a565b60009081526006602052604090206001015490565b34801561056957600080fd5b50610402610578366004612a74565b600b6020526000908152604090205460ff1681565b34801561059957600080fd5b506104b46105a8366004612acc565b610fb8565b3480156105b957600080fd5b506105c2610fe3565b6040516103d99190612af8565b3480156105db57600080fd5b506105e4611044565b60405160ff90911681526020016103d9565b34801561060257600080fd5b506104b4610611366004612acc565b611070565b34801561062257600080fd5b507f00000000000000000000000000000000000000000000000000000000000000005b6040516001600160a01b0390911681526020016103d9565b34801561066957600080fd5b506103cf610678366004612a74565b5060001990565b34801561068b57600080fd5b5061040261069a366004612a74565b6110a8565b3480156106ab57600080fd5b506104b46106ba366004612b8d565b6110c2565b3480156106cb57600080fd5b506104b46106da366004612a74565b6111f8565b3480156106eb57600080fd5b506104b46106fa366004612bef565b6113c5565b34801561070b57600080fd5b5061040261071a366004612a74565b611557565b34801561072b57600080fd5b506103cf61073a366004612acc565b611571565b34801561074b57600080fd5b506103cf61075a366004612a74565b6001600160a01b031660009081526001602052604090205490565b34801561078157600080fd5b506104b4611597565b34801561079657600080fd5b506107ca6107a5366004612a74565b6008602052600090815260409020805460019091015460ff8082169161010090041683565b6040805193845260ff90921660208401521515908201526060016103d9565b3480156107f557600080fd5b506000546001600160a01b0316610645565b34801561081357600080fd5b50610402610822366004612acc565b6115ab565b34801561083357600080fd5b506103cf610842366004612acc565b6115d6565b34801561085357600080fd5b506104276115f4565b34801561086857600080fd5b506103cf610877366004612c2f565b611603565b34801561088857600080fd5b506103cf6105dc81565b34801561089e57600080fd5b506103cf600081565b3480156108b357600080fd5b506106456108c2366004612a1a565b611839565b3480156108d357600080fd5b506104026108e2366004612a4a565b611863565b3480156108f357600080fd5b506103cf610902366004612a1a565b611871565b34801561091357600080fd5b506103cf610922366004612c6b565b61187e565b34801561093357600080fd5b506103cf610942366004612c6b565b6118d6565b34801561095357600080fd5b506104b4610962366004612c9e565b611925565b34801561097357600080fd5b506103cf610982366004612a1a565b611ba6565b34801561099357600080fd5b506103cf6109a2366004612a74565b611bb3565b3480156109b357600080fd5b506103cf6109c2366004612a4a565b611bd7565b3480156109d357600080fd5b506104b46109e2366004612b8d565b611d29565b3480156109f357600080fd5b506104b4610a02366004612acc565b611e31565b348015610a1357600080fd5b50610645610a22366004612a1a565b611e56565b348015610a3357600080fd5b506103cf610a42366004612a74565b611e66565b348015610a5357600080fd5b506103cf610a62366004612cf8565b6001600160a01b03918216600090815260026020908152604080832093909416825291909152205490565b348015610a9957600080fd5b506103cf6000805160206131a883398151915281565b348015610abb57600080fd5b506104b4610aca366004612a74565b611e84565b348015610adb57600080fd5b506104b4610aea366004612b8d565b611ec2565b348015610afb57600080fd5b506106457f000000000000000000000000000000000000000000000000000000000000000081565b60007f00000000000000000000000000000000000000000000000000000000000000006040516370a0823160e01b81523060048201526001600160a01b0391909116906370a0823190602401602060405180830381865afa158015610b8c573d6000803e3d6000fd5b505050506040513d601f19601f82011682018060405250810190610bb09190612d22565b905090565b60006001600160e01b03198216637965db0b60e01b1480610be657506301ffc9a760e01b6001600160e01b03198316145b92915050565b606060048054610bfb90612d3b565b80601f0160208091040260200160405190810160405280929190818152602001828054610c2790612d3b565b8015610c745780601f10610c4957610100808354040283529160200191610c74565b820191906000526020600020905b815481529060010190602001808311610c5757829003601f168201915b5050505050905090565b6000610be6826000611f5d565b600033610c99818585611f97565b5060019392505050565b6000610be6826001611fa4565b610cc86000805160206131a8833981519152336115ab565b610ce45760405162461bcd60e51b81526004016103ac90612d75565b6001600160a01b0381166000908152600b602052604090205460ff16610d1d57604051635737b5dd60e01b815260040160405180910390fd5b6001600160a01b0381166000908152600b60205260408120805460ff191690555b600a54811015610e3957816001600160a01b0316600a8281548110610d6557610d65612dbd565b6000918252602090912001546001600160a01b031603610e3157600a8054610d8f90600190612de9565b81548110610d9f57610d9f612dbd565b600091825260209091200154600a80546001600160a01b039092169183908110610dcb57610dcb612dbd565b9060005260206000200160006101000a8154816001600160a01b0302191690836001600160a01b03160217905550600a805480610e0a57610e0a612dfc565b600082815260209020810160001990810180546001600160a01b0319169055019055610e39565b600101610d3e565b506040516001600160a01b038216907f09a1db4b80c32706328728508c941a6b954f31eb5affd32f236c1fd405f8fea490600090a250565b610e896000805160206131a8833981519152336115ab565b610ea55760405162461bcd60e51b81526004016103ac90612d75565b6001600160a01b038116610ecc5760405163e6c4247b60e01b815260040160405180910390fd5b6001600160a01b0381166000908152600b602052604090205460ff1615610f065760405163c45546f760e01b815260040160405180910390fd5b6001600160a01b0381166000818152600b6020526040808220805460ff19166001908117909155600a8054918201815583527fc65a7bb8d6351c1cf70c95a316cc6a92839c986682d98bc35f958f4883f9d2a80180546001600160a01b03191684179055517f3f008fd510eae7a9e7bee13513d7b83bef8003d488b5a3d0b0da4de71d6846f19190a250565b600033610fa0858285611fd4565b610fab85858561203a565b60019150505b9392505050565b600082815260066020526040902060010154610fd381612099565b610fdd83836120a3565b50505050565b60606009805480602002602001604051908101604052809291908181526020018280548015610c7457602002820191906000526020600020905b81546001600160a01b0316815260019091019060200180831161101d575050505050905090565b6000610bb0817f0000000000000000000000000000000000000000000000000000000000000000612e12565b6001600160a01b03811633146110995760405163334bd91960e11b815260040160405180910390fd5b6110a38282612137565b505050565b6000610be66000805160206131a8833981519152836115ab565b6110da6000805160206131c8833981519152336115ab565b6110f65760405162461bcd60e51b81526004016103ac90612e2b565b6001600160a01b0383166000908152600b602052604090205460ff1661112f57604051635737b5dd60e01b815260040160405180910390fd5b6000836001600160a01b0316838360405161114b929190612e72565b6000604051808303816000865af19150503d8060008114611188576040519150601f19603f3d011682016040523d82523d6000602084013e61118d565b606091505b50509050806111af57604051632b3f6d1160e21b815260040160405180910390fd5b836001600160a01b03167f6a9d52079a1ac0ea72c563072a89036e4144243170fda6efc656b566af5e645984846040516111ea929190612eab565b60405180910390a250505050565b6112106000805160206131a8833981519152336115ab565b61122c5760405162461bcd60e51b81526004016103ac90612d75565b6001600160a01b038116600090815260086020526040902060010154610100900460ff1661126d5760405163e51cf7bf60e01b815260040160405180910390fd5b6001600160a01b0381166000908152600860205260408120600101805461ff00191690555b60095481101561138d57816001600160a01b0316600982815481106112b9576112b9612dbd565b6000918252602090912001546001600160a01b03160361138557600980546112e390600190612de9565b815481106112f3576112f3612dbd565b600091825260209091200154600980546001600160a01b03909216918390811061131f5761131f612dbd565b9060005260206000200160006101000a8154816001600160a01b0302191690836001600160a01b03160217905550600980548061135e5761135e612dfc565b600082815260209020810160001990810180546001600160a01b031916905501905561138d565b600101611292565b506040516001600160a01b038216907f4c910b69fe65a61f7531b9c5042b2329ca7179c77290aa7e2eb3afa3c8511fd390600090a250565b6113dd6000805160206131a8833981519152336115ab565b6113f95760405162461bcd60e51b81526004016103ac90612d75565b6001600160a01b0383166114205760405163e6c4247b60e01b815260040160405180910390fd5b6001600160a01b038316600090815260086020526040902060010154610100900460ff1661149457600980546001810182556000919091527f6e1540171b6c0c960b71a7020d9f60077f6af931a8bbf590da0223dacf75c7af0180546001600160a01b0319166001600160a01b0385161790555b604051806060016040528083815260200160008360ff16116114be576114b9856121a4565b6114c0565b825b60ff9081168252600160209283018190526001600160a01b0387166000818152600885526040908190208651815586860151930180549682015115156101000261ffff19909716938516939093179590951790915583518681529185169282019290925290917f01c96f0fa54eb4467c7ed3d8dce893bcfb1f6ff30483a76ebc8c4a08aad1596491015b60405180910390a2505050565b6000610be66000805160206131c8833981519152836115ab565b6000600019600061158185611ba6565b905061158f33858784612211565b949350505050565b61159f6122a3565b6115a960006122d0565b565b60009182526006602090815260408084206001600160a01b0393909316845291905290205460ff1690565b600060001960006115e685611871565b905061158f33858388612211565b606060058054610bfb90612d3b565b600061160d612320565b6001600160a01b0384166116345760405163e51cf7bf60e01b815260040160405180910390fd5b826000036116555760405163162908e360e11b815260040160405180910390fd5b7f00000000000000000000000000000000000000000000000000000000000000006001600160a01b0316846001600160a01b03160361169f576116988383611571565b905061182f565b6001600160a01b03841660009081526008602090815260409182902082516060810184528154815260019091015460ff8082169383019390935261010090049091161515918101829052906117075760405163e51cf7bf60e01b815260040160405180910390fd5b61171c6001600160a01b03861633308761234a565b805160405163052571af60e51b815260048101919091526105dc60248201526000907f00000000000000000000000000000000000000000000000000000000000000006001600160a01b03169063a4ae35e090604401608060405180830381865afa15801561178f573d6000803e3d6000fd5b505050506040513d601f19601f820116820180604052508101906117b39190612f0a565b905060006117c6868385602001516123b1565b90506117d181611ba6565b93506117dd8585612463565b60408051878152602081018390529081018590526001600160a01b0388169033907f190364654a03144cd62e0d95942fa650800e7ccfab5c4dd1afa7ecb90a5abca39060600160405180910390a35050505b610fb16001600755565b6009818154811061184957600080fd5b6000918252602090912001546001600160a01b0316905081565b600033610c9981858561203a565b6000610be6826001611f5d565b60008061188a83611bb3565b9050808511156118b357828582604051633fa733bb60e21b81526004016103ac93929190612ebf565b60006118be86610ca3565b90506118cd338686898561249d565b95945050505050565b6000806118e283611e66565b90508085111561190b57828582604051632e52afbb60e21b81526004016103ac93929190612ebf565b600061191686610c7e565b90506118cd338686848a61249d565b61193d6000805160206131c8833981519152336115ab565b6119595760405162461bcd60e51b81526004016103ac90612e2b565b6001600160a01b0384166000908152600b602052604090205460ff1661199257604051635737b5dd60e01b815260040160405180910390fd5b826000036119b35760405163162908e360e11b815260040160405180910390fd5b60007f00000000000000000000000000000000000000000000000000000000000000006040516370a0823160e01b81523060048201526001600160a01b0391909116906370a0823190602401602060405180830381865afa158015611a1c573d6000803e3d6000fd5b505050506040513d601f19601f82011682018060405250810190611a409190612d22565b905083811015611a6357604051631e9acf1760e31b815260040160405180910390fd5b7f000000000000000000000000000000000000000000000000000000000000000060405163095ea7b360e01b81526001600160a01b03878116600483015260248201879052919091169063095ea7b3906044016020604051808303816000875af1158015611ad5573d6000803e3d6000fd5b505050506040513d601f19601f82011682018060405250810190611af99190612f9d565b506040516359efcb1560e01b81526001600160a01b038616906359efcb1590611b2a90879087908790600401612fbf565b600060405180830381600087803b158015611b4457600080fd5b505af1158015611b58573d6000803e3d6000fd5b50505050846001600160a01b03167f6a9d52079a1ac0ea72c563072a89036e4144243170fda6efc656b566af5e64598484604051611b97929190612eab565b60405180910390a25050505050565b6000610be6826000611fa4565b6001600160a01b038116600090815260016020526040812054610be6906000611f5d565b60007f00000000000000000000000000000000000000000000000000000000000000006001600160a01b0316836001600160a01b031603611c19575080610be6565b6001600160a01b03831660009081526008602090815260409182902082516060810184528154815260019091015460ff808216938301939093526101009004909116151591810182905290611c815760405163e51cf7bf60e01b815260040160405180910390fd5b805160405163052571af60e51b815260048101919091526105dc60248201526000907f00000000000000000000000000000000000000000000000000000000000000006001600160a01b03169063a4ae35e090604401608060405180830381865afa158015611cf4573d6000803e3d6000fd5b505050506040513d601f19601f82011682018060405250810190611d189190612f0a565b90506118cd848284602001516123b1565b611d416000805160206131c8833981519152336115ab565b611d5d5760405162461bcd60e51b81526004016103ac90612e2b565b6001600160a01b0383166000908152600b602052604090205460ff16611d9657604051635737b5dd60e01b815260040160405180910390fd5b60405163ce5c7f6160e01b81526001600160a01b0384169063ce5c7f6190611dc49085908590600401612eab565b600060405180830381600087803b158015611dde57600080fd5b505af1158015611df2573d6000803e3d6000fd5b50505050826001600160a01b03167f6a9d52079a1ac0ea72c563072a89036e4144243170fda6efc656b566af5e6459838360405161154a929190612eab565b600082815260066020526040902060010154611e4c81612099565b610fdd8383612137565b600a818154811061184957600080fd5b6001600160a01b038116600090815260016020526040812054610be6565b611e8c6122a3565b6001600160a01b038116611eb657604051631e4fbdf760e01b8152600060048201526024016103ac565b611ebf816122d0565b50565b611eda6000805160206131c8833981519152336115ab565b611ef65760405162461bcd60e51b81526004016103ac90612e2b565b6001600160a01b0383166000908152600b602052604090205460ff16611f2f57604051635737b5dd60e01b815260040160405180910390fd5b60405163160e093b60e11b81526001600160a01b03841690632c1c127690611dc49085908590600401612eab565b6000610fb1611f6a610b23565b611f75906001612fd9565b611f816000600a6130d3565b600354611f8e9190612fd9565b8591908561255d565b6110a383838360016125a1565b6000610fb1611fb482600a6130d3565b600354611fc19190612fd9565b611fc9610b23565b611f8e906001612fd9565b6001600160a01b03838116600090815260026020908152604080832093861683529290522054600019811015610fdd578181101561202b57828183604051637dc7a0d960e11b81526004016103ac93929190612ebf565b610fdd848484840360006125a1565b6001600160a01b03831661206457604051634b637e8f60e11b8152600060048201526024016103ac565b6001600160a01b03821661208e5760405163ec442f0560e01b8152600060048201526024016103ac565b6110a3838383612668565b611ebf813361277f565b60006120af83836115ab565b61212f5760008381526006602090815260408083206001600160a01b03861684529091529020805460ff191660011790556120e73390565b6001600160a01b0316826001600160a01b0316847f2f8788117e7eff1d82e926ec794901d17c78024a50270940304540a733656f0d60405160405180910390a4506001610be6565b506000610be6565b600061214383836115ab565b1561212f5760008381526006602090815260408083206001600160a01b0386168085529252808320805460ff1916905551339286917ff6391f5c32d9c69d2a47ea670b442974b53935d1edc7fd64eb21e047a839171b9190a4506001610be6565b6000816001600160a01b031663313ce5676040518163ffffffff1660e01b8152600401602060405180830381865afa925050508015612200575060408051601f3d908101601f191682019092526121fd918101906130e2565b60015b610be657506012919050565b919050565b61223d7f000000000000000000000000000000000000000000000000000000000000000085308561234a565b6122478382612463565b826001600160a01b0316846001600160a01b03167fdcbc1c05240f31ff3ad067ef1ee35ce4997762752e3a095284754544f4c709d78484604051612295929190918252602082015260400190565b60405180910390a350505050565b6000546001600160a01b031633146115a95760405163118cdaa760e01b81523360048201526024016103ac565b600080546001600160a01b038381166001600160a01b0319831681178455604051919092169283917f8be0079c531659141344cd1fd0a4f28419497f9722a3daafe3b4186f6b6457e09190a35050565b60026007540361234357604051633ee5aeb560e01b815260040160405180910390fd5b6002600755565b6040516001600160a01b038481166024830152838116604483015260648201839052610fdd9186918216906323b872dd906084015b604051602081830303815290604052915060e01b6020820180516001600160e01b0383818316178352505050506127b8565b600080836000015160070b136123da576040516328771d9160e01b815260040160405180910390fd5b600080846040015160030b126123f757836040015160030b612409565b8360400151612405906130ff565b60030b5b845190915067ffffffffffffffff1661242382600a613122565b61242e85600a6130d3565b612438919061312e565b612442828861312e565b61244f90620f424061312e565b612459919061315b565b9695505050505050565b6001600160a01b03821661248d5760405163ec442f0560e01b8152600060048201526024016103ac565b61249960008383612668565b5050565b826001600160a01b0316856001600160a01b0316146124c1576124c1838683611fd4565b6124cb8382612829565b6124f67f0000000000000000000000000000000000000000000000000000000000000000858461285f565b826001600160a01b0316846001600160a01b0316866001600160a01b03167ffbde797d201c681b91056529119e0b02407c7bb96a4a2c75c01fc9667232c8db858560405161254e929190918252602082015260400190565b60405180910390a45050505050565b600061258c61256b83612890565b801561258757506000848061258257612582613145565b868809115b151590565b6125978686866128bd565b6118cd9190612fd9565b6001600160a01b0384166125cb5760405163e602df0560e01b8152600060048201526024016103ac565b6001600160a01b0383166125f557604051634a1406b160e11b8152600060048201526024016103ac565b6001600160a01b0380851660009081526002602090815260408083209387168352929052208290558015610fdd57826001600160a01b0316846001600160a01b03167f8c5be1e5ebec7d5bd14f71427d1e84f3dd0314c0f7b2291e5b200ac8c7c3b9258460405161229591815260200190565b6001600160a01b0383166126935780600360008282546126889190612fd9565b909155506126f29050565b6001600160a01b038316600090815260016020526040902054818110156126d35783818360405163391434e360e21b81526004016103ac93929190612ebf565b6001600160a01b03841660009081526001602052604090209082900390555b6001600160a01b03821661270e5760038054829003905561272d565b6001600160a01b03821660009081526001602052604090208054820190555b816001600160a01b0316836001600160a01b03167fddf252ad1be2c89b69c2b068fc378daa952ba7f163c4a11628f55a4df523b3ef8360405161277291815260200190565b60405180910390a3505050565b61278982826115ab565b6124995760405163e2517d3f60e01b81526001600160a01b0382166004820152602481018390526044016103ac565b600080602060008451602086016000885af1806127db576040513d6000823e3d81fd5b50506000513d915081156127f3578060011415612800565b6001600160a01b0384163b155b15610fdd57604051635274afe760e01b81526001600160a01b03851660048201526024016103ac565b6001600160a01b03821661285357604051634b637e8f60e11b8152600060048201526024016103ac565b61249982600083612668565b6040516001600160a01b038381166024830152604482018390526110a391859182169063a9059cbb9060640161237f565b600060028260038111156128a6576128a661316f565b6128b09190613185565b60ff166001149050919050565b60008060006128cc8686612972565b91509150816000036128f1578381816128e7576128e7613145565b0492505050610fb1565b818411612908576129086003851502601118612990565b6000848688096000868103871696879004966002600389028118808a02820302808a02820302808a02820302808a02820302808a02820302808a02909103029181900381900460010185841190960395909502919093039390930492909217029150509392505050565b60008060001983850993909202808410938190039390930393915050565b634e487b71600052806020526024601cfd5b6000602082840312156129b457600080fd5b81356001600160e01b031981168114610fb157600080fd5b602081526000825180602084015260005b818110156129fa57602081860181015160408684010152016129dd565b506000604082850101526040601f19601f83011684010191505092915050565b600060208284031215612a2c57600080fd5b5035919050565b80356001600160a01b038116811461220c57600080fd5b60008060408385031215612a5d57600080fd5b612a6683612a33565b946020939093013593505050565b600060208284031215612a8657600080fd5b610fb182612a33565b600080600060608486031215612aa457600080fd5b612aad84612a33565b9250612abb60208501612a33565b929592945050506040919091013590565b60008060408385031215612adf57600080fd5b82359150612aef60208401612a33565b90509250929050565b602080825282518282018190526000918401906040840190835b81811015612b395783516001600160a01b0316835260209384019390920191600101612b12565b509095945050505050565b60008083601f840112612b5657600080fd5b50813567ffffffffffffffff811115612b6e57600080fd5b602083019150836020828501011115612b8657600080fd5b9250929050565b600080600060408486031215612ba257600080fd5b612bab84612a33565b9250602084013567ffffffffffffffff811115612bc757600080fd5b612bd386828701612b44565b9497909650939450505050565b60ff81168114611ebf57600080fd5b600080600060608486031215612c0457600080fd5b612c0d84612a33565b9250602084013591506040840135612c2481612be0565b809150509250925092565b600080600060608486031215612c4457600080fd5b612c4d84612a33565b925060208401359150612c6260408501612a33565b90509250925092565b600080600060608486031215612c8057600080fd5b83359250612c9060208501612a33565b9150612c6260408501612a33565b60008060008060608587031215612cb457600080fd5b612cbd85612a33565b935060208501359250604085013567ffffffffffffffff811115612ce057600080fd5b612cec87828801612b44565b95989497509550505050565b60008060408385031215612d0b57600080fd5b612d1483612a33565b9150612aef60208401612a33565b600060208284031215612d3457600080fd5b5051919050565b600181811c90821680612d4f57607f821691505b602082108103612d6f57634e487b7160e01b600052602260045260246000fd5b50919050565b60208082526028908201527f4d756c7469546f6b656e5661756c743a2063616c6c6572206973206e6f7420616040820152671036b0b730b3b2b960c11b606082015260800190565b634e487b7160e01b600052603260045260246000fd5b634e487b7160e01b600052601160045260246000fd5b81810381811115610be657610be6612dd3565b634e487b7160e01b600052603160045260246000fd5b60ff8181168382160190811115610be657610be6612dd3565b60208082526027908201527f4d756c7469546f6b656e5661756c743a2063616c6c6572206973206e6f7420616040820152661b881859d95b9d60ca1b606082015260800190565b8183823760009101908152919050565b81835281816020850137506000828201602090810191909152601f909101601f19169091010190565b60208152600061158f602083018486612e82565b6001600160a01b039390931683526020830191909152604082015260600190565b805167ffffffffffffffff8116811461220c57600080fd5b8051600381900b811461220c57600080fd5b60006080828403128015612f1d57600080fd5b600090506040516080810181811067ffffffffffffffff82111715612f5057634e487b7160e01b83526041600452602483fd5b6040528351600781900b8114612f64578283fd5b8152612f7260208501612ee0565b6020820152612f8360408501612ef8565b604082015260609384015193810193909352509092915050565b600060208284031215612faf57600080fd5b81518015158114610fb157600080fd5b8381526040602082015260006118cd604083018486612e82565b80820180821115610be657610be6612dd3565b6001815b60018411156130275780850481111561300b5761300b612dd3565b600184161561301957908102905b60019390931c928002612ff0565b935093915050565b60008261303e57506001610be6565b8161304b57506000610be6565b8160018114613061576002811461306b57613087565b6001915050610be6565b60ff84111561307c5761307c612dd3565b50506001821b610be6565b5060208310610133831016604e8410600b84101617156130aa575081810a610be6565b6130b76000198484612fec565b80600019048211156130cb576130cb612dd3565b029392505050565b6000610fb160ff84168361302f565b6000602082840312156130f457600080fd5b8151610fb181612be0565b60008160030b637fffffff19810361311957613119612dd3565b60000392915050565b6000610fb1838361302f565b8082028115828204841417610be657610be6612dd3565b634e487b7160e01b600052601260045260246000fd5b60008261316a5761316a613145565b500490565b634e487b7160e01b600052602160045260246000fd5b600060ff83168061319857613198613145565b8060ff8416069150509291505056fe241ecf16d79d0f8dbfb92cbc07fe17840425976cf0667f022fe9877caa831b08cab5a0bfe0b79d2c4b1c2e02599fa044d115b7511f9659307cb4276950967709a2646970667358221220884452dae82425168d794d05292acf833fcb49718d05c4ee7fcb04b27e96aefe64736f6c634300081c0033",
  "linkReferences": {},
  "deployedLinkReferences": {}
}