{
  "_format": "hh-sol-artifact-1",
  "contractName": "MockWETH",
  "sourceName": "contracts/mocks/MockWETH.sol",
  "abi": [
    {
      "inputs": [],
      "stateMutability": "nonpayable",
      "type": "constructor"
    },
    {
      "inputs": [
        {
          "internalType": "address",
          "name": "spender",
          "type": "address"
        },
        {
          "internalType": "uint256",
          "name": "allowance",
          "type": "uint256"
        },
        {
          "internalType": "uint256",
          "name": "needed",
          "type": "uint256"
        }
      ],
      "name": "ERC20InsufficientAllowance",
      "type": "error"
    },
    {
      "inputs": [
        {
          "internalType": "address",
          "name": "sender",
          "type": "address"
        },
        {
          "internalType": "uint256",
          "name": "balance",
          "type": "uint256"
        },
        {
          "internalType": "uint256",
          "name": "needed",
          "type": "uint256"
        }
      ],
      "name": "ERC20InsufficientBalance",
      "type": "error"
    },
    {
      "inputs": [
        {
          "internalType": "address",
          "name": "approver",
          "type": "address"
        }
      ],
      "name": "ERC20InvalidApprover",
      "type": "error"
    },
    {
      "inputs": [
        {
          "internalType": "address",
          "name": "receiver",
          "type": "address"
        }
      ],
      "name": "ERC20InvalidReceiver",
      "type": "error"
    },
    {
      "inputs": [
        {
          "internalType": "address",
          "name": "sender",
          "type": "address"
        }
      ],
      "name": "ERC20InvalidSender",
      "type": "error"
    },
    {
      "inputs": [
        {
          "internalType": "address",
          "name": "spender",
          "type": "address"
        }
      ],
      "name": "ERC20InvalidSpender",
      "type": "error"
    },
    {
      "inputs": [
        {
          "internalType": "address",
          "name": "owner",
          "type": "address"
        }
      ],
      "name": "OwnableInvalidOwner",
      "type": "error"
    },
    {
      "inputs": [
        {
          "internalType": "address",
          "name": "account",
          "type": "address"
        }
      ],
      "name": "OwnableUnauthorizedAccount",
      "type": "error"
    },
    {
      "anonymous": false,
      "inputs": [
        {
          "indexed": true,
          "internalType": "address",
          "name": "owner",
          "type": "address"
        },
        {
          "indexed": true,
          "internalType": "address",
          "name": "spender",
          "type": "address"
        },
        {
          "indexed": false,
          "internalType": "uint256",
          "name": "value",
          "type": "uint256"
        }
      ],
      "name": "Approval",
      "type": "event"
    },
    {
      "anonymous": false,
      "inputs": [
        {
          "indexed": true,
          "internalType": "address",
          "name": "previousOwner",
          "type": "address"
        },
        {
          "indexed": true,
          "internalType": "address",
          "name": "newOwner",
          "type": "address"
        }
      ],
      "name": "OwnershipTransferred",
      "type": "event"
    },
    {
      "anonymous": false,
      "inputs": [
        {
          "indexed": true,
          "internalType": "address",
          "name": "from",
          "type": "address"
        },
        {
          "indexed": true,
          "internalType": "address",
          "name": "to",
          "type": "address"
        },
        {
          "indexed": false,
          "internalType": "uint256",
          "name": "value",
          "type": "uint256"
        }
      ],
      "name": "Transfer",
      "type": "event"
    },
    {
      "inputs": [
        {
          "internalType": "address",
          "name": "owner",
          "type": "address"
        },
        {
          "internalType": "address",
          "name": "spender",
          "type": "address"
        }
      ],
      "name": "allowance",
      "outputs": [
        {
          "internalType": "uint256",
          "name": "",
          "type": "uint256"
        }
      ],
      "stateMutability": "view",
      "type": "function"
    },
    {
      "inputs": [
        {
          "internalType": "address",
          "name": "spender",
          "type": "address"
        },
        {
          "internalType": "uint256",
          "name": "value",
          "type": "uint256"
        }
      ],
      "name": "approve",
      "outputs": [
        {
          "internalType": "bool",
          "name": "",
          "type": "bool"
        }
      ],
      "stateMutability": "nonpayable",
      "type": "function"
    },
    {
      "inputs": [
        {
          "internalType": "address",
          "name": "account",
          "type": "address"
        }
      ],
      "name": "balanceOf",
      "outputs": [
        {
          "internalType": "uint256",
          "name": "",
          "type": "uint256"
        }
      ],
      "stateMutability": "view",
      "type": "function"
    },
    {
      "inputs": [
        {
          "internalType": "uint256",
          "name": "amount",
          "type": "uint256"
        }
      ],
      "name": "burn",
      "outputs": [],
      "stateMutability": "nonpayable",
      "type": "function"
    },
    {
      "inputs": [],
      "name": "decimals",
      "outputs": [
        {
          "internalType": "uint8",
          "name": "",
          "type": "uint8"
        }
      ],
      "stateMutability": "pure",
      "type": "function"
    },
    {
      "inputs": [],
      "name": "deposit",
      "outputs": [],
      "stateMutability": "payable",
      "type": "function"
    },
    {
      "inputs": [
        {
          "internalType": "uint256",
          "name": "amount",
          "type": "uint256"
        }
      ],
      "name": "faucet",
      "outputs": [],
      "stateMutability": "nonpayable",
      "type": "function"
    },
    {
      "inputs": [
        {
          "internalType": "address",
          "name": "to",
          "type": "address"
        },
        {
          "internalType": "uint256",
          "name": "amount",
          "type": "uint256"
        }
      ],
      "name": "mint",
      "outputs": [],
      "stateMutability": "nonpayable",
      "type": "function"
    },
    {
      "inputs": [],
      "name": "name",
      "outputs": [
        {
          "internalType": "string",
          "name": "",
          "type": "string"
        }
      ],
      "stateMutability": "view",
      "type": "function"
    },
    {
      "inputs": [],
      "name": "owner",
      "outputs": [
        {
          "internalType": "address",
          "name": "",
          "type": "address"
        }
      ],
      "stateMutability": "view",
      "type": "function"
    },
    {
      "inputs": [],
      "name": "renounceOwnership",
      "outputs": [],
      "stateMutability": "nonpayable",
      "type": "function"
    },
    {
      "inputs": [],
      "name": "symbol",
      "outputs": [
        {
          "internalType": "string",
          "name": "",
          "type": "string"
        }
      ],
      "stateMutability": "view",
      "type": "function"
    },
    {
      "inputs": [],
      "name": "totalSupply",
      "outputs": [
        {
          "internalType": "uint256",
          "name": "",
          "type": "uint256"
        }
      ],
      "stateMutability": "view",
      "type": "function"
    },
    {
      "inputs": [
        {
          "internalType": "address",
          "name": "to",
          "type": "address"
        },
        {
          "internalType": "uint256",
          "name": "value",
          "type": "uint256"
        }
      ],
      "name": "transfer",
      "outputs": [
        {
          "internalType": "bool",
          "name": "",
          "type": "bool"
        }
      ],
      "stateMutability": "nonpayable",
      "type": "function"
    },
    {
      "inputs": [
        {
          "internalType": "address",
          "name": "from",
          "type": "address"
        },
        {
          "internalType": "address",
          "name": "to",
          "type": "address"
        },
        {
          "internalType": "uint256",
          "name": "value",
          "type": "uint256"
        }
      ],
      "name": "transferFrom",
      "outputs": [
        {
          "internalType": "bool",
          "name": "",
          "type": "bool"
        }
      ],
      "stateMutability": "nonpayable",
      "type": "function"
    },
    {
      "inputs": [
        {
          "internalType": "address",
          "name": "newOwner",
          "type": "address"
        }
      ],
      "name": "transferOwnership",
      "outputs": [],
      "stateMutability": "nonpayable",
      "type": "function"
    },
    {
      "inputs": [
        {
          "internalType": "uint256",
          "name": "amount",
          "type": "uint256"
        }
      ],
      "name": "withdraw",
      "outputs": [],
      "stateMutability": "nonpayable",
      "type": "function"
    },
    {
      "stateMutability": "payable",
      "type": "receive"
    }
  ],
  "bytecode": "0x608060405234801561001057600080fd5b50336040518060400160405280600d81526020016c2bb930b83832b21022ba3432b960991b815250604051806040016040528060048152602001630ae8aa8960e31b8152508160039081610064919061032a565b506004610071828261032a565b5050506001600160a01b0381166100a357604051631e4fbdf760e01b8152600060048201526024015b60405180910390fd5b6100ac816100d5565b506100d0336100bd6012600a6104e7565b6100cb906307270e006104fd565b610127565b610527565b600580546001600160a01b038381166001600160a01b0319831681179093556040519116919082907f8be0079c531659141344cd1fd0a4f28419497f9722a3daafe3b4186f6b6457e090600090a35050565b6001600160a01b0382166101515760405163ec442f0560e01b81526000600482015260240161009a565b61015d60008383610161565b5050565b6001600160a01b03831661018c5780600260008282546101819190610514565b909155506101fe9050565b6001600160a01b038316600090815260208190526040902054818110156101df5760405163391434e360e21b81526001600160a01b0385166004820152602481018290526044810183905260640161009a565b6001600160a01b03841660009081526020819052604090209082900390555b6001600160a01b03821661021a57600280548290039055610239565b6001600160a01b03821660009081526020819052604090208054820190555b816001600160a01b0316836001600160a01b03167fddf252ad1be2c89b69c2b068fc378daa952ba7f163c4a11628f55a4df523b3ef8360405161027e91815260200190565b60405180910390a3505050565b634e487b7160e01b600052604160045260246000fd5b600181811c908216806102b557607f821691505b6020821081036102d557634e487b7160e01b600052602260045260246000fd5b50919050565b601f82111561032557806000526020600020601f840160051c810160208510156103025750805b601f840160051c820191505b81811015610322576000815560010161030e565b50505b505050565b81516001600160401b038111156103435761034361028b565b6103578161035184546102a1565b846102db565b6020601f82116001811461038b57600083156103735750848201515b600019600385901b1c1916600184901b178455610322565b600084815260208120601f198516915b828110156103bb578785015182556020948501946001909201910161039b565b50848210156103d95786840151600019600387901b60f8161c191681555b50505050600190811b01905550565b634e487b7160e01b600052601160045260246000fd5b6001815b60018411156104395780850481111561041d5761041d6103e8565b600184161561042b57908102905b60019390931c928002610402565b935093915050565b600082610450575060016104e1565b8161045d575060006104e1565b8160018114610473576002811461047d57610499565b60019150506104e1565b60ff84111561048e5761048e6103e8565b50506001821b6104e1565b5060208310610133831016604e8410600b84101617156104bc575081810a6104e1565b6104c960001984846103fe565b80600019048211156104dd576104dd6103e8565b0290505b92915050565b60006104f660ff841683610441565b9392505050565b80820281158282048414176104e1576104e16103e8565b808201808211156104e1576104e16103e8565b610c97806105366000396000f3fe6080604052600436106101025760003560e01c8063579158971161009557806395d89b411161006457806395d89b41146102c1578063a9059cbb146102d6578063d0e30db0146102f6578063dd62ed3e146102fe578063f2fde38b1461034457600080fd5b8063579158971461022e57806370a082311461024e578063715018a6146102845780638da5cb5b1461029957600080fd5b80632e1a7d4d116100d15780632e1a7d4d146101b2578063313ce567146101d257806340c10f19146101ee57806342966c681461020e57600080fd5b806306fdde0314610118578063095ea7b31461014357806318160ddd1461017357806323b872dd1461019257600080fd5b36610113576101113334610364565b005b600080fd5b34801561012457600080fd5b5061012d6103a3565b60405161013a91906109b2565b60405180910390f35b34801561014f57600080fd5b5061016361015e366004610a1c565b610435565b604051901515815260200161013a565b34801561017f57600080fd5b506002545b60405190815260200161013a565b34801561019e57600080fd5b506101636101ad366004610a46565b61044f565b3480156101be57600080fd5b506101116101cd366004610a83565b610473565b3480156101de57600080fd5b506040516012815260200161013a565b3480156101fa57600080fd5b50610111610209366004610a1c565b610509565b34801561021a57600080fd5b50610111610229366004610a83565b61051b565b34801561023a57600080fd5b50610111610249366004610a83565b610528565b34801561025a57600080fd5b50610184610269366004610a9c565b6001600160a01b031660009081526020819052604090205490565b34801561029057600080fd5b50610111610598565b3480156102a557600080fd5b506005546040516001600160a01b03909116815260200161013a565b3480156102cd57600080fd5b5061012d6105ac565b3480156102e257600080fd5b506101636102f1366004610a1c565b6105bb565b6101116105c9565b34801561030a57600080fd5b50610184610319366004610abe565b6001600160a01b03918216600090815260016020908152604080832093909416825291909152205490565b34801561035057600080fd5b5061011161035f366004610a9c565b6105d3565b6001600160a01b0382166103935760405163ec442f0560e01b8152600060048201526024015b60405180910390fd5b61039f6000838361060e565b5050565b6060600380546103b290610af1565b80601f01602080910402602001604051908101604052809291908181526020018280546103de90610af1565b801561042b5780601f106104005761010080835404028352916020019161042b565b820191906000526020600020905b81548152906001019060200180831161040e57829003601f168201915b5050505050905090565b600033610443818585610738565b60019150505b92915050565b60003361045d85828561074a565b6104688585856107c9565b506001949350505050565b336000908152602081905260409020548111156104d25760405162461bcd60e51b815260206004820152601e60248201527f4d6f636b574554483a20496e73756666696369656e742062616c616e63650000604482015260640161038a565b6104dc3382610828565b604051339082156108fc029083906000818181858888f1935050505015801561039f573d6000803e3d6000fd5b61051161085e565b61039f8282610364565b6105253382610828565b50565b6105346012600a610c28565b61053f90600a610c37565b81111561058e5760405162461bcd60e51b815260206004820181905260248201527f4d6f636b574554483a204d617820313020574554482070657220666175636574604482015260640161038a565b6105253382610364565b6105a061085e565b6105aa600061088b565b565b6060600480546103b290610af1565b6000336104438185856107c9565b6105aa3334610364565b6105db61085e565b6001600160a01b03811661060557604051631e4fbdf760e01b81526000600482015260240161038a565b6105258161088b565b6001600160a01b03831661063957806002600082825461062e9190610c4e565b909155506106ab9050565b6001600160a01b0383166000908152602081905260409020548181101561068c5760405163391434e360e21b81526001600160a01b0385166004820152602481018290526044810183905260640161038a565b6001600160a01b03841660009081526020819052604090209082900390555b6001600160a01b0382166106c7576002805482900390556106e6565b6001600160a01b03821660009081526020819052604090208054820190555b816001600160a01b0316836001600160a01b03167fddf252ad1be2c89b69c2b068fc378daa952ba7f163c4a11628f55a4df523b3ef8360405161072b91815260200190565b60405180910390a3505050565b61074583838360016108dd565b505050565b6001600160a01b038381166000908152600160209081526040808320938616835292905220546000198110156107c357818110156107b457604051637dc7a0d960e11b81526001600160a01b0384166004820152602481018290526044810183905260640161038a565b6107c3848484840360006108dd565b50505050565b6001600160a01b0383166107f357604051634b637e8f60e11b81526000600482015260240161038a565b6001600160a01b03821661081d5760405163ec442f0560e01b81526000600482015260240161038a565b61074583838361060e565b6001600160a01b03821661085257604051634b637e8f60e11b81526000600482015260240161038a565b61039f8260008361060e565b6005546001600160a01b031633146105aa5760405163118cdaa760e01b815233600482015260240161038a565b600580546001600160a01b038381166001600160a01b0319831681179093556040519116919082907f8be0079c531659141344cd1fd0a4f28419497f9722a3daafe3b4186f6b6457e090600090a35050565b6001600160a01b0384166109075760405163e602df0560e01b81526000600482015260240161038a565b6001600160a01b03831661093157604051634a1406b160e11b81526000600482015260240161038a565b6001600160a01b03808516600090815260016020908152604080832093871683529290522082905580156107c357826001600160a01b0316846001600160a01b03167f8c5be1e5ebec7d5bd14f71427d1e84f3dd0314c0f7b2291e5b200ac8c7c3b925846040516109a491815260200190565b60405180910390a350505050565b602081526000825180602084015260005b818110156109e057602081860181015160408684010152016109c3565b506000604082850101526040601f19601f83011684010191505092915050565b80356001600160a01b0381168114610a1757600080fd5b919050565b60008060408385031215610a2f57600080fd5b610a3883610a00565b946020939093013593505050565b600080600060608486031215610a5b57600080fd5b610a6484610a00565b9250610a7260208501610a00565b929592945050506040919091013590565b600060208284031215610a9557600080fd5b5035919050565b600060208284031215610aae57600080fd5b610ab782610a00565b9392505050565b60008060408385031215610ad157600080fd5b610ada83610a00565b9150610ae860208401610a00565b90509250929050565b600181811c90821680610b0557607f821691505b602082108103610b2557634e487b7160e01b600052602260045260246000fd5b50919050565b634e487b7160e01b600052601160045260246000fd5b6001815b6001841115610b7c57808504811115610b6057610b60610b2b565b6001841615610b6e57908102905b60019390931c928002610b45565b935093915050565b600082610b9357506001610449565b81610ba057506000610449565b8160018114610bb65760028114610bc057610bdc565b6001915050610449565b60ff841115610bd157610bd1610b2b565b50506001821b610449565b5060208310610133831016604e8410600b8410161715610bff575081810a610449565b610c0c6000198484610b41565b8060001904821115610c2057610c20610b2b565b029392505050565b6000610ab760ff841683610b84565b808202811582820484141761044957610449610b2b565b8082018082111561044957610449610b2b56fea26469706673582212205418980f51c7dec7ae1a33b794c8db9119274f2690543b1cf61f354bf342300964736f6c634300081c0033",
  "linkReferences": {},
  "deployedLinkReferences": {}
}